:020000040000fa
:080000000001040000000000f3
:020000040000fa
:100200000f5c22000079220000018800000000003d
:100210000a00070011000700000020000000e000b5
:10022000020032000000020000000000264602002a
:10023000000000000040da000000fe004440a90079
:10024000606b20000000e00003003200000020008e
:10025000a00188004440a8000000060020c623003a
:10026000010020001500370062004000e0804800d7
:10027000910188009001ba0062004000e0804800cf
:10028000910188009002ba0062004000e0804800be
:100290000002eb006028e10004003a000059eb0086
:1002a0008301e900fdff3e00040037006128e10002
:1002b000010032000082eb00050007009101880078
:1002c0001001ba000200e000e7ff3a00000005005c
:1002d000910188008002780062004000e0804800c0
:1002e0003559ba008301e900080032002559ba00e7
:1002f0008301e900050032000400e000f4ff320051
:1003000015d9ba008301e900f1ff3a0000000600a8
:10031000f41d0400000000005a1e0400000000004c
:10032000a61e0400000000000c1f040000000000d6
:10033000721f040000000000d81f0400000000002d
:100340007620040000000000fc20040000000000f3
:1003500082210400000000002622040000000000aa
:100360001623040000000000ea230400000000003f
:100370006024040000000000ba2404000000000013
:100380001425040000000000de410400000000000d
:100390005432040000000000da52040000000000a3
:1003a000be530400000000003200f80091018800f4
:1003b0000008bb00410424006210e1000400320088
:1003c000000220000010e1000a003a00510424005d
:1003d000013b88000500fc0051052000313b8800ee
:1003e000a10a2000313b880061e7a800000000005e
:1003f000000000003200f900000006003200f800a2
:1004000060042400003b8800f2ff37003200f8004f
:100410009101880041002400013b88000208bb00d4
:10042000ecff37003200f8009101880051002400f1
:10043000013b8800030120003218bb008301e90062
:10044000fdff3a00e3ff37003200f8009101880019
:100450008002780062004000e08048003549ba0020
:100460003204e0000410a700100032008301e9000c
:100470000e0032002549ba003204e0000410a70043
:100480000a0032008301e900080032000408a300da
:10049000eeff320015c9ba003204e0000410a700d4
:1004a000020032008301e900e8ff3a003200f9005f
:1004b00000000600889fbe00e30440000900a10080
:1004c000808f54004a003600e38f540001003e0044
:1004d00049002000621d81000200e000020032009d
:1004e000820078000c003700e13a22000300370058
:1004f000908f5400230036008080e80011007800bf
:100500000000e000faff3a000f003700908f54001f
:100510001c0036008080e800110078000000e00038
:10052000faff3a0012017800e13a22000300370096
:10053000908f5400130036008080e800110078008e
:10054000820f5000faff3a00581d8100890f5400b5
:1005500001003100090478000800780082000700db
:100560000000e00004003a00890f5400200032002f
:100570000804d100f5ff37000818780031000700a3
:10058000d4ff370011017800920178006480510097
:10059000890f50000300310012009000800878009d
:1005a00007003700090041008008780092019000a0
:1005b00013009800110078001288140009097800cf
:1005c000910078000100e000050032001100900069
:1005d0000000e000020032000180e8000100370066
:1005e0000000eb00601d89000280e8000100370078
:1005f0000000eb004f04be0000000600000478007d
:100600000600370082004100901d8100e100780063
:100610000200e800801d890001000100821d8100a8
:10062000a01d8100800f5100f6ff3900003222002a
:10063000901d890020022000a01d8900080078007c
:10064000500007000000e000310032008080e90027
:1006500091027800e38f52002d0036000508a300b8
:100660002b003a00721d81000200e00002003200ff
:10067000828f50000400310002087800711d89004b
:100680001600370003017800920190000300e0009b
:1006900002003200818f5100faff39001202780007
:1006a00004004100808f500019003900810f500074
:1006b00003003a0005094200820078000700370075
:1006c0000300e0000300320005804000808f5100ed
:1006d0000f0039009300980011019800110190005b
:1006e0000200e0000a00320011804000820f50003a
:1006f00007003a00c03a22000008eb001100900009
:1007000011017800900841001000900090009800be
:100710000000060080007800010037000000e800bb
:100720001004e000fdff3a00010050000000060048
:100730008001eb0002003700817178008301e8003e
:10074000828f5100fcff3a00000006008001eb00a0
:100750000200370061f079008301e800828f5100c8
:10076000fcff3a00000006000000e0000300340037
:100770000c000700e10f400001003a000000eb0010
:10078000000006000c02e20004003d000f42ab0036
:10079000020032000f02ab00feff32000040da0020
:1007a000feff3700889fbe0080047800560ce200f0
:1007b00004003a000000eb00100007000000e00019
:1007c0000a003500b06280000900e00002003a0033
:1007d000000478000600370000047800090040009b
:1007e000060007000000e00001003d000084eb006f
:1007f000080078004f04be0000000600800078006a
:100800000000e00004003a00003c2200b0628800d2
:1008100001017800060037000081eb00005c220037
:10082000808f500002003e00b16288000001eb00a2
:100830000200780000000600839f68000100e000cd
:1008400002003d0060001000e08018000300e0009e
:1008500002003d0060011100e08119007d010700e8
:100860004f00e00002003b0060001000e080180034
:1008700000000600889fbe008a9fbe000105780028
:100880000100e0000400350008003c000000e0002a
:10089000200032000500370060001000e0801800e2
:1008a00002003b0001f02c001a0037000004be00db
:1008b0006011b8006b0920000982cf0002003900e6
:1008c0000882cf000441b000694252000e0032009d
:1008d00008003b0082817100610164008904d1003d
:1008e0000884d3008b05e8000442e800f9ff3a00d1
:1008f000050037000804440089844c008b05e9009a
:100900000442e900fbff3a00620107000af0a70079
:1009100001f0a0004f05be004f04be00000006001d
:10092000889fbe008a9fbe008c1f78007f01070051
:100930008601330003866c006450e1002e00320013
:100940006420e100330032006150e1002f003200ea
:100950006120e1003100320085855500eb07b000d1
:1009600009002000080420000500370008044400a6
:1009700089844c000a0031000603430087834b0042
:100980000001530081815b00f8ff33000203be00c9
:100990000800a0000804440089844c00f6ff3900d8
:1009a000c639dd008301730001003200130020000e
:1009b0008904d1000884d3000998a30005003200ff
:1009c0000800a7000300a0008904d1000884d30018
:1009d0008b05e8008904d1000884d3000001eb00f6
:1009e0000281d2002b01070001f0a1000cf0a7004a
:1009f00001f0a0005e0137006420e10060013200d8
:100a00000801be000200be00f7ff37006120e100d0
:100a10005b0132006000b800f3ff370000002000e7
:100a200001f82700f0ff37000001be005701070062
:100a30000470a70003f0a1006509b10016003200a0
:100a40000d0035006828e10006003500f0ff2f009a
:100a5000f1ff27000300e00013003b000100280025
:100a60000000050000004000818048008502e90088
:100a7000fcff3a0008003700f88f420002003c00fb
:100a80008000eb00000005008100d1000080d30051
:100a90008502e800fcff3a000300e00002003b0092
:100aa00060001000e080180000000600889fbe0073
:100ab0008a9fbe008c1f78000004be00330107002f
:100ac0000478a30026003a006120e10025003200ee
:100ad00009f8a30025003a006420e100210032005b
:100ae000f507b1000508a300020032000000400035
:100af000818048006044b8000310200002002000fc
:100b000000004000818048000805440089854c00b1
:100b10000a0541008b8549000a0550008b85580065
:100b2000030033000a00be000204740083847400d2
:100b30008301d1000281d300830f7100f0ff3a00de
:100b40008904d1000884d300600149008201780043
:100b5000c1adde00fb07b000ce0007000401370086
:100b60000960a0000800be00010137001202200049
:100b7000a2628800f0ff2f00f1ff2700fc00370081
:100b8000889fbe008a9fbe008c1f7800e700070088
:100b90001002200002003b00a0628800eb0037003a
:100ba0008a0062006408e10002003a00a062880046
:100bb000f30037006108e100fcff32000800be00ce
:100bc0000304780056ff070001f0a10004010700ac
:100bd00008f0a600040037000001be0091042400c4
:100be000b0fd20003700070009f0a70001f0a200c7
:100bf000df003700889fbe008a9fbe008c1f7800f0
:100c0000ca000700d100330003866c006450e10085
:100c1000240032006420e100270032006150e1002e
:100c2000220032006120e100210032008b85420069
:100c3000eb07b1000134b800003ab80008044200e4
:100c400089844a00013ab8000030b800888040002a
:100c500009014a0004003300000040008180480080
:100c6000020149008b05e900c909dd00830170001c
:100c70000100320013002000c814de004814dd001b
:100c80004709de001200b200c808de0008847000c8
:100c90008000070001f0a1000cf0a70001f0a00007
:100ca000b30037006120e100b50032000801be004a
:100cb0000200be00f7ff37006150e100fcff3a0080
:100cc000af00370003f0a200889fbe008a9fbe00dd
:100cd0008c1f7800950007009c0033006450e100f1
:100ce0004f0032006420e1005200320003826c00a9
:100cf00007003b000905d0000306d000820f540016
:100d00000c065d0002003900020032008901780003
:100d1000030678008582550004003d000003fd00b5
:100d20008103fd008502ea008b854200840f72007a
:100d300002003b0060001000e08018006011b80065
:100d40000005eb007a28e1000a003900060078006f
:100d5000c75ddd00f707b200878075002d00370002
:100d6000828171000a017800610560008180d100f4
:100d70000080d3008502e900f9ff3b000604400033
:100d80008784480002003b0060041400e0841c00db
:100d90000988a300070032008a81710082817100f6
:100da000610164008904d1000884d3008b05e80048
:100db000170037000978a30013003a000b00e00089
:100dc000130034008b05e9000804440089844c00ba
:100dd0000a4474000978a3000d003a000b00e000fb
:100de000070034008b05e9000804440089844c00a6
:100df00001003a000b0020000978a300f7ff320041
:100e00000001eb0002003700828171000a017800c6
:100e1000200007000cf0a70001f0a00054003700ec
:100e20006420e10002003a00838f6c00540033001c
:100e30000801be000200be004d0037001400200073
:100e4000cc003700f4ff2f00ca0037000400200058
:100e5000c80037006022b800060220000000d00061
:100e60008180d2000482d2008582d2000000a000de
:100e70000202520083825a00030031000202420043
:100e800083824a000000a1000603e900f3ff3a0054
:100e90000000060081002000618055000b003d002d
:100ea0000b00200061fe2f000100e1001d00340056
:100eb00082817100610164008904d1000884d3003b
:100ec0000000e800faff3a007100200061006400b1
:100ed0000300700002006000090032006104440059
:100ee000e0844c000988a500050032008b05e8006d
:100ef0006808e10002003a008904d1000884d300a8
:100f0000f20f20000258e10005003d00c75ddd0042
:100f1000f907b2008980750008007800000006001b
:100f20000bf827008b007800000005000004be00cd
:100f3000160007000003be000405be000200be004c
:100f400012000700844f7500000006000200be007a
:100f50006450e100050036006420e1000200360024
:100f60000968a30001003a000800be000160a0006b
:100f70004f0678004f05be004f04be00000006007b
:100f8000f0ff2f00f1ff2700f9ff3700c70ade004e
:100f9000f107b200f50fb20008003200e1cf4200c5
:100fa000020032000170a00024000500810f7000d3
:100fb000010032000408050044000500810f7000a4
:100fc00002003a00140005008502e900000040001c
:100fd00081c04800fcff3b000170a0002400050018
:100fe000889fbe008a9fbe008c9fbe000004be008a
:100ff000e6ff07000800be00890678006420e100d3
:1010000008003900040032000160a0001202200034
:10101000a26288005300370091fc2300b0fd20003d
:101020004e0037000006eb0009f0a10003f8230092
:10103000020020000800be0080ff07000600340008
:1010400001f82300000020000801be0034fe070064
:101050000004be002c0020000800be0093e823001e
:10106000320a230075ff0700120034000801be0099
:10107000d1fd2300703d2b0013ff07000005be00cb
:10108000b3f32300f27a26000800be00d9fe070061
:1010900003f82300020020000aff07000801be0039
:1010a00009ff07000a01be001dfe07000004be0084
:1010b0000c06e8000800be0001f0a10002002000bc
:1010c000039823005dff07000800be0016003500ee
:1010d0000801be00c7fe07000005be0032cd2c008f
:1010e00043fb2300f8fe0700809fbe001269280022
:1010f00003d52b000a00be00befe0700620f2100d0
:1011000013ef2b00f0fe07000a01be00b9fe070036
:101110004f01be0002fe07000801be00b5fe070039
:101120000801be00e8fe07000c00e0000b003200e2
:101130000c10a70001f0a200b2fd200093fc2300d8
:101140006260e1000400320022a9200063f0230065
:101150000c10a70063f82300dbfe07000df0a700ca
:1011600001f0a2004f06be004f05be004f04be00b6
:1011700000000600889fbe008a9fbe00841f780082
:101180006aff07004f00780011003300f0ff2f00c6
:10119000838f6c0006003b00040565000a00a70071
:1011a0000800370009f0a6001000200008003700f2
:1011b000820f5400838f5c00030039001000200070
:1011c00001003e000000200009f0a7000000ea0036
:1011d0004f05be004f04be000000e0000000060006
:020000040000fa
:0200000401f009
:04000000e6ff000017
:020000040000fa
:0200000401f009
:04000400ff7f00007a
:020000040000fa
:0200000401f009
:040008007fff000076
:020000040000fa
:0200000401f009
:04001400ffff0000ea
:020000040000fa
:100008008061000080610000806100008061000064
:100018008061000080610000806100008061000054
:100028008061000080610000806100008061000044
:1000380080610000806100006a5a00008061000051
:10004800806100007460000010600000c847000074
:100058008061000080610000c052000080610000e3
:100068008061000080610000806100008061000004
:1000780080610000ec600000845d00008061000089
:10008800b0600000ac5f000080610000806100008b
:1000980080610000806100008061000080610000d4
:1000a80080610000806100008061000080610000c4
:1000b80080610000806100008061000080610000b4
:1000c80080610000806100008061000080610000a4
:1000d8008061000080610000806100008061000094
:1000e8008061000080610000806100008061000084
:0800f80080610000806100003e
:020000040000fa
:100108008061000080610000806100008061000063
:100118008061000080610000806100008061000053
:100128008061000080610000806100008061000043
:1001380080610000806100006a5a00008061000050
:10014800806100007460000010600000c847000073
:100158008061000080610000c052000080610000e2
:100168008061000080610000806100008061000003
:1001780080610000ec600000845d00008061000088
:10018800b0600000ac5f000080610000806100008a
:1001980080610000806100008061000080610000d3
:1001a80080610000806100008061000080610000c3
:1001b80080610000806100008061000080610000b3
:1001c80080610000806100008061000080610000a3
:1001d8008061000080610000806100008061000093
:1001e8008061000080610000806100008061000083
:0801f80080610000806100003d
:020000040000fa
:1011e0008c020000df0200003003000080030000da
:1011f000d10300002204000073040000c2040000b8
:1012000014050000b305000054060000f1060000bc
:101210008f0700002d080000ca08000063090000c5
:10122000fc090000340b00005c0c0000820d000083
:10123000a40e0000bd0f0000d3100000e21100005a
:10124000e7120000ef140000cc1600009218000016
:10125000401a0000d61b0000531d0000b51e000000
:101260000b200000792200008d2400006f26000072
:101270001428000090290000e02a0000112c000032
:10128000252d0000052f000089300000d33100001b
:10129000ec320000dd330000ae34000067350000a2
:1012a0000d36000020370000fb370000b238000088
:1012b0004a390000cc3900003b3a00009b3a00005c
:1012c000f33a0000833b0000f43b0000513c000077
:1012d0009f3c0000e13c00001a3d00004b3d000037
:1012e000783d0000c03d0000f93d0000283e0000b0
:1012f0004f3e0000703e00008d3e0000a53e000005
:10130000bc3e0000e03e0000fd3e0000143f000037
:10131000283f0000383f0000473f0000533f0000d7
:101320005e3f0000703f00007f3f00008a3f0000ea
:10133000943f00009c3f0000a43f0000aa3f000033
:10134000af3f0000b83f0000c03f0000c53f0000b5
:10135000cb3f0000ce3f0000d23f0000d53f000051
:10136000d83f0000dc3f0000e03f0000e33f00000a
:10137000e53f0000e83f0000e93f0000eb3f0000d0
:10138000ec3f0000ee3f0000f13f0000f13f0000a5
:10139000f33f0000f43f0000f53f0000f53f000080
:1013a000f73f0000f73f0000f93f0000f83f000062
:1013b000fa3f0000fa3f0000fa3f0000fb3f000048
:1013c000fb3f0000fc3f0000fc3f0000fc3f000032
:1013d000fe3f0000fd3f0000fd3f0000fd3f00001c
:1013e000fe3f0000fe3f0000fe3f0000fe3f000009
:1013f000fe3f0000fe3f000000400000ff3f0000f5
:10140000ff3f0000ff3f0000ff3f0000ff3f0000e4
:10141000ff3f0000ff3f0000ff3f0000ff3f0000d4
:10142000ff3f0000ff3f00000040000000400000c0
:1014300000400000004000000040000000400000ac
:10144000004000000040000000400000004000009c
:10145000004000000040000000400000004000008c
:101460000040000000000000930100002403000081
:10147000b704000048060000da0700006b0900000e
:10148000fc0a00008c0c00001c0e0000ab0f0000da
:101490003b110000c812000056140000e3150000c4
:1014a0006e170000f9180000831a00000c1c0000e1
:1014b000941d00001a1f0000a0200000242200003c
:1014c000a723000029250000a826000027280000e7
:1014d000a4290000202b0000992c0000122e0000ef
:1014e000872f0000fc3000006f320000df33000067
:1014f0004e350000ba360000253800008d39000056
:10150000f33a0000573c0000b93d0000173f0000cf
:1015100074400000ce410000264300007b440000e0
:10152000cd4500001d4700006a480000b449000096
:10153000fc4a0000404c0000824d0000c04e0000fc
:10154000fc4f000034510000695200009b53000022
:10155000ca540000f65500001e5700004358000012
:1015600064590000835a00009d5b0000b45c0000d9
:10157000c85d0000d75e0000e45f0000ec60000082
:10158000f1610000f2620000ef630000e964000016
:10159000de650000d0660000bd670000a76800009f
:1015a0008c6900006e6a00004b6b0000246c000028
:1015b000f96c0000ca6d0000976e00005f6f0000bc
:1015c00023700000e37000009e710000557200005f
:1015d00008730000b6730000607400000575000019
:1015e000a575000042760000d97600006c770000f7
:1015f000fb77000084780000097900008a790000f8
:10160000067a00007d7a0000ef7a00005d7b000022
:10161000c67b00002a7c0000897c0000e47c00007e
:10162000397d00008a7d0000d77d00001d7e00000e
:10163000607e00009d7e0000d67e0000097f0000d5
:10164000397f0000627f0000877f0000a77f0000d5
:10165000c27f0000d87f0000ea7f0000f67f000014
:10166000fe7f0000ff7f00006d61000074680000d5
:101670002e660000696c00006c00000066690000c6
:101680006c6c00007320000064650000737400003f
:10169000207700006974000068200000636f00007c
:1016a0006e730000746100006e740000207600000c
:1016b000616c000075650000006400006573000047
:1016c00074000000766100006c7500006500000089
:1016d0006d610000746800002e6300006f700000f0
:1016e00079000000636f00007069000065730000fe
:1016f0002073000072630000207400006f2000005f
:101700006465000073740000206500006c650000d3
:101710006d6500006e7400002062000079200000fa
:10172000656c0000656d0000656e000074000000cf
:1017300073720000630000006d61000074680000b7
:101740002e61000064640000006100006464000019
:1017500073200000737200006331000020610000fc
:101760006e640000207300007263000032200000ed
:10177000746f00002064000065730000742c00008a
:10178000206500006c6500006d6500006e7400004f
:101790002062000079200000656c0000656d00008b
:1017a000656e000074000000737200006331000079
:1017b0000073000072630000320000006d610000e1
:1017c000746800002e730000756200000073000052
:1017d00075620000737400007261000063740000a1
:1017e0007320000073720000633200002066000066
:1017f000726f00006d200000737200006331000002
:10180000207400006f200000646500007374000005
:101810002c200000656c0000656d0000656e000006
:101820007420000062790000206500006c650000f3
:101830006d6500006e740000006d000061740000b2
:10184000682e00006d7500006c0000006d750000d2
:101850006c740000697000006c6900006573000022
:10186000207300007263000031200000616e0000f0
:1018700064200000737200006332000020740000d6
:101880006f20000064650000737400002c200000cd
:10189000656c0000656d0000656e0000742000003e
:1018a00062790000206500006c6500006d65000035
:1018b0006e740000006d000061740000682e00006e
:1018c0006469000076000000646900007669000029
:1018d0006465000073200000737200006331000033
:1018e0002062000079200000737200006332000063
:1018f000207400006f200000646500007374000015
:101900002c200000656c0000656d0000656e000015
:101910007420000062790000206500006c65000002
:101920006d6500006e740000006d000061740000c1
:10193000682e00006d6900006e00000077720000e4
:101940006974000065730000207400006865000081
:10195000206d0000696e0000696d0000756d00006b
:10196000206f0000662000007372000063310000e9
:10197000206100006e6400002073000072630000ac
:1019800032200000746f00002064000065730000c6
:10199000742c0000206500006c6500006d6500007f
:1019a0006e7400002062000079200000656c000069
:1019b000656d0000656e0000740000006d61000040
:1019c000746800002e6d0000617800000077000050
:1019d00072690000746500007320000074680000e4
:1019e000652000006d610000786900006d750000e1
:1019f0006d2000006f66000020730000726300001d
:101a000031200000616e000064200000737200004d
:101a100063320000207400006f2000006465000045
:101a2000737400002c200000656c0000656d0000e0
:101a3000656e0000742000006279000020650000df
:101a40006c6500006d6500006e740000006d0000a4
:101a500061740000682e0000646f000074000000d4
:101a60007772000069740000657300002074000044
:101a700068650000206400006f74000020700000a2
:101a8000726f00006475000063740000206f000036
:101a900066200000737200006331000020610000c6
:101aa0006e640000207300007263000032200000aa
:101ab000746f00002064000065730000742c000047
:101ac0002061000066740000657200002061000063
:101ad0002073000068690000667400000073000055
:101ae0006869000066740000006d00006174000009
:101af000682e000073740000617400000070000024
:101b000065720000666f0000726d000073200000b7
:101b10007374000061740000697300007469000050
:101b200063730000206f00006e20000073720000dd
:101b3000630000006d6900006e0000006d61000030
:101b4000780000006d650000616e0000006d00000f
:101b500061740000682e00006d7500006c64000068
:101b6000697600000070000065720000666f00007a
:101b7000726d000073200000646500007374000043
:101b8000203d000020280000612a0000622900009a
:101b90002f630000206900006e2000003332000037
:101ba000206200006974000073200000656c000072
:101bb000656d0000656e0000742000006279000011
:101bc000206500006c6500006d6500006e7400000b
:101bd000006100000062000000630000006d000072
:101be00061740000682e000061740000616e0000e6
:101bf0003200000070650000726600006f72000025
:101c00006d73000020640000657300007420000004
:101c10003d20000061740000616e00003228000069
:101c2000792c000078290000206500006c65000018
:101c30006d6500006e7400002062000079200000d5
:101c4000656c0000656d0000656e000074000000aa
:101c500079000000780000006d61000074680000e9
:101c60002e730000696e00000070000065720000b5
:101c7000666f0000726d0000732000006465000054
:101c800073740000203d000020730000696e0000a6
:101c90002878000029200000656c0000656d0000b8
:101ca000656e00007420000062790000206500006d
:101cb0006c6500006d6500006e740000006d000032
:101cc00061740000682e0000636f00007300000064
:101cd00070650000726600006f7200006d73000096
:101ce0002064000065730000742000003d200000a7
:101cf000636f000073280000782900002065000051
:101d00006c6500006d6500006e74000020620000cc
:101d100079200000656c0000656d0000656e0000b4
:101d2000740000006d610000746800002e720000f5
:101d30006f74000032000000726f000074610000d8
:101d40007465000073200000762000006f660000bc
:101d5000206100006e6700006c65000020610000db
:101d6000207400006f2000006465000073740000a0
:101d700000760000000000006964000000730000ad
:101d80006f75000072630000650000006172000062
:101d900067730000006c000065660000745300006b
:101da0007065000065640000007200006967000053
:101db0006874000053700000656500006400000056
:101dc0006c6500006473000000700000726f00001a
:101dd00078000000616d000062690000616e000023
:101de0007400000061630000630000006361000094
:101df0006d4c0000696e000065000000636100002a
:101e00006d52000000630000616d0000470000009b
:101e1000636100006d42000000690000725f000015
:101e2000736500006e7300006f72000073000000a5
:101e30004e6500007720000049520000207300002a
:101e4000656e0000736f0000727300002076000062
:101e5000616c000075650000732000006176000071
:101e6000616900006c610000626c000065000000a8
:101e7000636100006d65000072610000004e0000ab
:101e80006577000020630000616d0000657200004e
:101e9000612000007069000063740000757200002a
:101ea0006520000061760000616900006c6100003f
:101eb000626c0000650000000d8f0000188f0000ac
:101ec000388f00003f8f000000000000000000007d
:101ed00067650000745f0000677200006f750000a6
:101ee0006e6400005f760000616c000075650000a4
:101ef000730000007265000061640000207400003f
:101f00006865000020760000616c000075650000c7
:101f1000732000006f6600002074000068650000f8
:101f200020670000726f0000756e000064200000e2
:101f3000736500006e7300006f7200007300000094
:0c1f4000646500007374000000000000e5
:020000040000fa
:101f4c000200fa00000f78009e0078000000eb0001
:101f5c00800898009e0078000000eb00f0009800cc
:101f6c009e0078000000eb00a01898001e0078007e
:101f7c00a00090000000eb00800878001e007800a4
:101f8c003000900000004000800078001e007800b7
:101f9c0040009000010178008000eb00e1f907009f
:101fac000080fa00000006000a00fa0020079800e2
:101fbc00310798002e0090002000900090007800cf
:101fcc001107980010002000000f78001300370054
:101fdc002e009000a00090001e0078000000400031
:101fec0000804000900078003e009000808f5000f0
:101ffc0009003a002e009000a00090001e0078000e
:10200c0000004000008040000080e80010007800d4
:10201c0040079800060037001e8fe8001e00900055
:10202c009e0f1000eaff39000000eb0040079800fb
:10203c004e0090000080fa00000006000600fa0036
:10204c001007980021079800ae0090001e00900029
:10205c00d5ff0700000f78001e00e0001f003200c3
:10206c001e00900070009000610060000004e00011
:10207c00060032001e00900070014000230020007a
:10208c00810029001e009000fc1d07001e0090001e
:10209c009e007800010898009e0090000080eb00e4
:1020ac00900898001e00900070009000800078004e
:1020bc000100a0001e009000710098001e0090000e
:1020cc00700090000000d100610060000004e0008e
:1020dc00020032001e0090007f0407001e007800f2
:1020ec000080fa00000006001200fa00000f7800d1
:1020fc001107980022079800330798003e009000c3
:10210c006101b80072079800030f980010012000bd
:10211c00010020007e0190008e099000800f51007c
:10212c00818f5900ab003e007e0090008e0890001d
:10213c00006001001100370015003700190037004e
:10214c001d0037002100370025003700390037000b
:10215c003f00370043003700470037004b00370083
:10216c00530037005b003700630037006b0037000b
:10217c00730037007b003700880037009e0090000a
:10218c002e0090008008dd00610798009300370056
:10219c009e0090002e0090008088de006107980061
:1021ac008e0037009e0090002e0090008080400032
:1021bc0061079800890037009e0090002e00900067
:1021cc008080500061079800840037009e009000ca
:1021dc002e0090000088b900600798007f0037003f
:1021ec002e0090000000e0000c003a001e00780069
:1021fc0021002000710098009e0078007081400042
:10220c0023002000710029001e0078009b1d070090
:10221c000001eb0062079800700037001e00900070
:10222c002e019000110009000200d80060079800f0
:10223c006a0037001e0090002e019000110009006a
:10224c000200d8008000fd00600798006300370092
:10225c009e0090002e009000808070006107980016
:10226c005e0037009e0090002e0090008080680079
:10227c0061079800590037009e0090002e009000d6
:10228c008080600061079800540037008001eb00eb
:10229c00630798009e0090002e009000808f5000e5
:1022ac004e003a0010002000600798004b003700e9
:1022bc008000eb00610798009e0090002e009000bb
:1022cc00808f5000450032001200200062079800f9
:1022dc00420037008001eb00630798009e009000dd
:1022ec002e009000808f50003c0034001000200025
:1022fc0060079800390037008000eb0061079800f8
:10230c009e0090002e009000808f5000330035000e
:10231c001200200062079800300037008001eb00ab
:10232c00630798009e0090002e009000808f500054
:10233c002a003d001000200060079800270037009d
:10234c008000eb00610798009e0090002e0090002a
:10235c00808f500021003c00120020006207980082
:10236c001e0037001e0090000000e00003003a0041
:10237c002e0090000000e00003003200130020004b
:10238c0053079800020037000000eb00500798003c
:10239c00de00900061079800100037001e009000ce
:1023ac000000e000060032002e0090000000e0006b
:1023bc000300320012002000420798000200370090
:1023cc008001eb00430798004e00900060079800d6
:1023dc00020037008000eb00610798006e0090004f
:1023ec000080fa00000006000a00fa00000f7800d6
:1023fc0011079800220798002e00900040079800c3
:10240c004e009000e10f50000b0032004e00900087
:10241c00e10f5000040039004e009000e20f500014
:10242c000e003200110037001e0090000000ea0080
:10243c00300798000f0037001e00900030079800fe
:10244c003e0090000000e0000a003d003e009000bd
:10245c000000ea0030079800060037001e009000cc
:10246c000080ea0030079800020037000000eb0003
:10247c00300798003e0090000080fa000000060033
:10248c004200fa00601f98006e189000a0009000a7
:10249c006e18900000089000000040000080400082
:1024ac0090007800711798007e1090004c00de00b0
:1024bc006101b800721f980003279800e00020000b
:1024cc00010020007e1990008e219000800f510099
:1024dc00818f59001e023e007e1890008e209000c5
:1024ec00006001000e003700140037002a0037008e
:1024fc00430037005e00370078003700bc0037001f
:10250c000801370024013700500137005a01370009
:10251c00bc013700df013700e9013700fe0137004d
:10252c006e189000f0009000e0ff2f00808060009b
:10253c006e18900071009800050237007e10900014
:10254c004400dd004480de00601798006e18900097
:10255c00600190006e189000100890008000e80058
:10256c006e189000110898006e18900010089000da
:10257c000000400000004100ee10900001087800bf
:10258c006e189000000890008000e8006e18900013
:10259c0001089800ee0137006e1890006001900061
:1025ac006e189000100890008000e8006e189000e3
:1025bc00110898006e189000100890000000400060
:1025cc00000141006e189000a00090006e18900061
:1025dc000008900000004000008040000080e800ef
:1025ec0010007800000978006e1890000008900028
:1025fc008080e8006e18900001089800d401370024
:10260c00fe109000f0ff2000008060005017980032
:10261c006e189000600190006e18900010089000e9
:10262c008000e8006e189000110898006e18900059
:10263c001008900000004000000141006e1890004e
:10264c00c00090005e109000000040000080400030
:10265c0010007800000978006e18900000089000b7
:10266c008000e8006e18900001089800b80137004f
:10267c00fe109000f0ff20000080600040179800d2
:10268c006e189000c00090004e10900000004000aa
:10269c00808140006e189000e00090006e18900051
:1026ac0010099000020078000000400000804000fb
:1026bc0010007800800978008200e9006e18900004
:1026cc00110898006e189000000890008000e80037
:1026dc006e189000010898009d013700fe109000c4
:1026ec00f0ff200000806000301798006e189000fa
:1026fc00a00090006e1890000008900000004000b0
:10270c00008040000080e80010017800221798003b
:10271c006e189000e00090006e1890001008900069
:10272c000000400000804000100078001017980056
:10273c009e1090002e109000808f500017003900d2
:10274c006e18900080089000000320000e004000de
:10275c0001087800000320000e004000ae1190002c
:10276c0013009800000320000e0040009e10900003
:10277c0021009800ee18900020002000f000980036
:10278c00020320000e0141006300200061002900bb
:10279c006e189000391c07006d0137006e18900000
:1027ac00e00090006e1890001008900000004000af
:1027bc00808140006e18900040019000be10900087
:1027cc001e109000008040000000400000004100fe
:1027dc0010007800800978006e18900000089000b6
:1027ec008080e8006e1890000108980058013700ae
:1027fc00fe109000f0ff2000008060000017980091
:10280c006e189000a00090006e18900000089000c8
:10281c0000004000008040000080e80010017800bb
:10282c00720f98006e189000e00090006e189000e7
:10283c001008900000004000008040000080e9007b
:10284c0090017800530f98006e189000e0009000f3
:10285c006e189000100890000000400000804000ae
:10286c0010007800600f9800ee0890007e08900031
:10287c00808f5000170039006e189000800890006f
:10288c00600320000e004000010878006003200067
:10289c000e004000fe08900011009800600320001c
:1028ac000e0040006e09900022009800ee18900077
:1028bc0020002000f0009800620320000e0141006f
:1028cc0063002000610029006e189000eb1b0700cc
:1028dc001f0137006e189000400190008e10900080
:1028ec006e08900000804000000040000000410095
:1028fc00de099000030878006e1890001008900014
:10290c008080e9006e189000110898006e189000f5
:10291c00000890008080e8006e1890000108980074
:10292c000b0137006e189000e00090006e189000bc
:10293c0010089000000040000080400090007800db
:10294c00410f9800fe109000f00f200000816000f5
:10295c00ce0890006e189000a3fe0700300f980070
:10296c006e189000e00090006e1890001008900017
:10297c0000004000008040003e09900002087800f2
:10298c006e189000000890008000e8006e1890000f
:10299c0001089800ee0037006e189000e0009000df
:1029ac006e1890001008900000004000008040005d
:1029bc000080e90090017800230f98006e189000b9
:1029cc00e00090006e18900010089000000040008d
:1029dc000080400090007800110f9800fe109000cd
:1029ec00f00f200000806000800178001e0990002c
:1029fc00ae0890006e189000bbfd0700000f980009
:102a0c006e189000100890008000e9006e1890007d
:102a1c00110898006e189000e00090006e1890005d
:102a2c001008900000004000008040000e0990004b
:102a3c00020878006e189000000890008000e800f2
:102a4c006e18900001089800c10037007e109000ad
:102a5c004400dd004480de00700798006e18900082
:102a6c00800890007e009000808040006e189000de
:102a7c0001089800b60037006e189000e000900036
:102a8c006e1890001008900000004000008040007c
:102a9c000080e90090017800530798006e189000b0
:102aac00e00090006e1890001008900000004000ac
:102abc00008040009000780041079800fe109000c4
:102acc00f00f200000806000800178004e01900023
:102adc00de0090006e18900083fd070060079800e0
:102aec006e189000100890008080e9006e1890001d
:102afc00110898006e0090000000e0000d003200fc
:102b0c007e1090004800de00610060000000e000d4
:102b1c00050032007e1090004900de00610060006c
:102b2c000000e00003003a0020002000300798006d
:102b3c00090037006e189000a00090006e189000ed
:102b4c000008900000004000008040000080e80079
:102b5c0010007800300798006e0090000000e00034
:102b6c00110032006e189000a00090006e189000ba
:102b7c000008900000004000008140006e1890009a
:102b8c00a00090006e18900000089000000040001b
:102b9c000080400090007800002020000080700031
:102bac0000097800100037006e189000a00090000b
:102bbc006e1890000008900000004000008140005a
:102bcc006e189000a00090006e1890000008900005
:102bdc00000040000080400090007800f0df2f00e3
:102bec0000806000000978006e189000800890004a
:102bfc003e009000808040006e1890000108980004
:102c0c00530037006e189000a00090006e189000d2
:102c1c000008900000004000008040000080e800a8
:102c2c0010017800220798006e189000a000900008
:102c3c006e189000000890000000400000804000da
:102c4c00640040001000780000004000100798005d
:102c5c006e189000c00090002e0090000000400004
:102c6c0000814000fe109000f0ff2000808060008a
:102c7c009e0190006e189000001b07006e189000cb
:102c8c0000089000e30040006e18900001089800c6
:102c9c002f003700fe109000f0ff200080806000b5
:102cac006e189000fe1507006e189000000890003a
:102cbc008000e8006e18900001089800240037008e
:102ccc00fe109000f0ff2000008f60006e18900046
:102cdc00600190006e189000100890008000e800d1
:102cec006e189000110898006e1890001008900053
:102cfc0000004000800041006e1890000008900019
:102d0c000000e800800878006e1890009e017800a2
:102d1c00030898000e0037006e189000e000900039
:102d2c006e1890001009900002007800000040001e
:102d3c000080400010007800800078006e18900031
:102d4c00010898008200e9006e18900011089800a4
:102d5c000080fa00000006000a00fa00889fbe00fe
:102d6c0020079800310798000f0478000f007800b6
:102d7c00800478003e00900063f60700000f780096
:102d8c009e007800638040000000e8000000e8002e
:102d9c000000d100000040008f007800410798002f
:102dac0080874700ce0090000100e8000000d100b1
:102dbc0000004000400798004e009000100798005b
:102dcc00ae00900020002000f00098001e00900043
:102ddc00800078002e009000000890008008780099
:102dec001e007800804078001e0090002140980062
:102dfc001e00900063004000be0090001e01780091
:102e0c004ff607009e007800638040001e01900082
:102e1c0080017800910029002e009000971a07007d
:102e2c0089077800880778004f04be000080fa00fc
:102e3c00000006000600fa00100798000000eb00e6
:102e4c00000f7800130037001e0078009e009000e1
:102e5c000000400074004000e08078001e009000ec
:102e6c0000089000808f500009003a001e0090006e
:102e7c0070009000800078000110a0001e009000ef
:102e8c007100980010002000200798000700370000
:102e9c001e0fe8001e009000201890009e0f50009e
:102eac00e9ff3e000000eb00200798002e00900088
:102ebc000080fa00000006000400fa00000f780001
:102ecc00110798001e0078007000900080007800b8
:102edc000120a0001e007800710098001e009000d8
:102eec000000e00019003200050037001e007800d9
:102efc0063fd07001e0090000000e9001007980019
:102f0c001e00780070009000610060000004a200b8
:102f1c000004e00019003a001e00780070009000d8
:102f2c004200de00610060000004a2000004e0002a
:102f3c0012003a001e0090000000e000ebff3a0087
:102f4c000e0037001e0078004dfd07001e007800b3
:102f5c0070009000610060000004a2000004e0001a
:102f6c0006003a001e007800700090004200de005f
:102f7c00610060000004e000f2ff3a001e007800df
:102f8c00f0009000b0ff2f00808060001e007800e1
:102f9c00710098000080fa00000006000400fa009e
:102fac00000f7800110798001e0078007000900048
:102fbc00800078000120a0001e00780071009800ad
:102fcc001e0090000000e0003300320012003700b9
:102fdc001e00780097ff07000000e0000900320097
:102fec001e00780070009000800078000110a00096
:102ffc001e007800710098001e007800b6000700d3
:10300c00370037001e0078001dfd07001e009000e1
:10301c000000e900100798001e0078007000900076
:10302c00610060000004a2000004e00026003a00e9
:10303c001e007800700090004200de00610060000d
:10304c000004a2000004e0001f003a001e009000e3
:10305c000000e000deff3a001b0037001e00780085
:10306c0074ff07000000e000090032001e00780029
:10307c0070009000800078000110a0001e00780005
:10308c00710098001e0078009300070014003700b0
:10309c001e007800fafc07001e00780070009000fb
:1030ac00610060000004a2000004e00006003a0089
:1030bc001e007800700090004200de00610060008d
:1030cc000004e000e5ff3a001e007800f0009000dc
:1030dc00b0ff2f00808060001e0078007100980007
:1030ec000080fa00000006000600fa00000f7800cd
:1030fc00110798001e007800700090000000a200dc
:10310c00610060000004e000030032000000eb00ee
:10311c0020079800160037001e0078007000900001
:10312c000000d100610060000004e00003003200e8
:10313c000000eb00200798000d0037001e007800ff
:10314c00201890000000e000040032009e00900067
:10315c001e00780091ff0700030037009e009000ce
:10316c001e00780054ff0700100020002007980074
:10317c002e0090000080fa00000006000600fa0005
:10318c00000f7800110798001e007800201890009e
:10319c00ef0f50000e003e001e007800a0189000ab
:1031ac001e017800018040000200400074004000c5
:1031bc001e019000020878008100e8001e007800d3
:1031cc0021189800100020002007980002003700fa
:1031dc000001eb00220798002e0090000080fa00fe
:1031ec00000006000a00fa0020079800310798003a
:1031fc000000eb0010079800260037001e0090001e
:10320c00ae0090000000400074004000e0807800a8
:10321c003e009000808f50001b003a002e00900062
:10322c00201890008000e9002e00900021189800d2
:10323c001e009000000f78000c0037001e01780073
:10324c001e00e800ae00900000004000740040003a
:10325c00e0817800ae0090000200410001004000c7
:10326c0074004000030878001e0fe8002e00900048
:10327c00201890009e0f5000f0ff3e001000200020
:10328c00400798000a0037001e0090000000e8007c
:10329c00100798002e009000a01890001e009000bf
:1032ac00808f5000d5ff3e000000eb0040079800d7
:1032bc004e0090000080fa00000006000200fa00a8
:1032cc00000f78009e0078000000eb00a01898001a
:1032dc000080fa00000006000600fa0020079800a3
:1032ec002e00900000089000000f78002e00900037
:1032fc007000900010079800430020000e01780029
:10330c00a10029002e0090005c1907000080fa0033
:10331c00000006002000fa00200f9800310f9800e2
:10332c00420f9800530f9800be08900000002a002e
:10333c00808f500003003a002e0890008a19070075
:10334c00bf0037004e089000900078002e089000c7
:10335c0010007800808f5000b9003a004e089000a1
:10336c000080e800400f98005e0890000000e90023
:10337c00500f98003e0890006101b800f0ff250046
:10338c00f1ff2f000201400083814800620f98007a
:10339c00730f9800d0002000010020006e099000ef
:1033ac00fe099000800f5100818f5900a4003e004f
:1033bc006e089000fe089000006001000d003700c0
:1033cc002b003700350037003d0037004500370033
:1033dc004e003700530037005500370063003700ac
:1033ec006700370069003700740037008f00370022
:1033fc00910037004e0890009000780071079800fb
:10340c005e0890000000e900600798000000eb00e7
:10341c0050079800120037002e08900020019000f1
:10342c00fe0090005e009000008040000000400014
:10343c00000141005e009000000040008000780018
:10344c004e089000008040000080e80010007800da
:10345c00000978005e0090000000e800500798001a
:10346c00de0090006e009000808f5000eaff390063
:10347c002e08900021002000710098008080eb0045
:10348c002e089000edfa07000000e0006c003a00f6
:10349c002e08900090ff0700690037002e0890005e
:1034ac00f0009000d0ff2f00808060002e0890006c
:1034bc00710098002e08900087ff0700600037000d
:1034cc002e08900070009000800078000110a00081
:1034dc002e089000710098002e0890007eff0700c7
:1034ec00570037002e0890007000900061006000bb
:1034fc000004e000520032002e089000e0fb0700b0
:10350c002e08900074ff07004d003700ae089000a5
:10351c0020002000f00098002e0890006eff07009d
:10352c00470037002e0890006bff0700440037005f
:10353c004e08900010007800000f98004e08900084
:10354c00900078002e0890000cff07000080fb0014
:10355c00100f98007001470043002000b1002900b3
:10356c002e089000c5180700350037004e08900053
:10357c00900078002e0890001aff070030003700ea
:10358c002e0890004dff07002d0037004e089000cc
:10359c0010017800420798004e0890000080e80067
:1035ac0090017800330798003e019000ce00900007
:1035bc002e089000cc180700210037004e08900010
:1035cc0090007800210798005e0890000000e90048
:1035dc00100798000000eb00000f78000f00370078
:1035ec002e089000c00090002e0090001e0040009d
:1035fc0000004000008140001e00780000004000e8
:10360c00800078004e089000008040000080e800a8
:10361c0010007800000978001e0fe8001e009000d2
:10362c009e0f1000eeff3900050037002e089000a9
:10363c000e150700020037002e08900053150700e6
:10364c000080fa00000006000c00fa002007980029
:10365c0031079800420798004e00900090007800c7
:10366c00110798001e0090000000e0000a003500d1
:10367c009e0090002e0090004bfa07008000eb009b
:10368c00510798000000e0001c003a0010002000d8
:10369c0050079800190037009e009000f0ff290099
:1036ac00808f5000130036004e0090000080e80020
:1036bc00100f78009e00900000002a00808f5000b0
:1036cc0003003a008000eb00510798000b00370014
:1036dc002e009000100078008000eb00510798003d
:1036ec009e0f50000500320010002000500798007b
:1036fc000200370011002000510798005e00900076
:08370c000080fa000000060035
:020000040000fa
:103714002000fa00889fbe008a9fbe00500f9800c8
:10372400610f98005e0890000000e0000c003a0071
:103734006e0890000000e000030035000000eb007c
:10374400700f9800ae0037006e0890000000e00093
:1037540003003d0002002800720f9800a800370003
:10376400ee099000330f98003e0890000000e0003e
:1037740003003d003e0890000000ea00300f98006e
:103784005e089000200f98002e0890000000e000d2
:1037940003003d002e0890000000ea00200f98006e
:1037a4006e0890000000e00003003a0000002400ce
:1037b400400f9800890037002e089000cf80de006b
:1037c400c002dd00040020003e0890006101b90041
:1037d4000400be0017f40700000f9800110f9800b2
:1037e4000000eb00700798000e0890009e089000ff
:1037f4004088de00cf80de000080cf007007980094
:103804007e0090000000e000040032007e00900082
:103814006f00400070079800090037000e08900000
:103824000080cf00700798007e0090000000e00048
:10383400030032007e0090000000e9007007980049
:103844007e0090006c005000600798006e009000ad
:103854000000e00013003d00008f280010007800f5
:103864006103b9000e0890000032b8001e089000f1
:1038740000b0b90005017800000141000e08900075
:103884000780b90000014100820278004429dd006c
:103894004c20de0000007100cca8de00400f980030
:1038a40047003700110020007e0090000008dd0072
:1038b4006101b9000e0890009e08900002005000bb
:1038c4008380580040079800510798007e009000bc
:1038d40068005000300798004e009000de00900011
:1038e4003e019000820178008301e9000300330067
:1038f4008180d1000080d300fbff370020079800af
:103904002e0090004580de00100798002e009000e5
:103914007f0f60006e009000c300dd001e00900069
:1039240000804000018f2800000040006080780083
:103934006103b900000220001e0050006101b900bb
:103944000235b80003b0b9000b027800000242004f
:103954000790b90000024200840578006e009000d0
:10396400c300dd001e009000008040000000e8005d
:10397400018f280000004000608078006104b900d5
:103984001e0078006101b9000243b80003c0b90009
:1039940007027800000242000990b90000024200c8
:1039a400840378000a0043008b804b004b09dd0040
:1039b4004500de0000007100c588de00400f98005d
:1039c4006e0890000000e00004003d0000002800a4
:1039d400ce08900001005000400f98005e0890004f
:1039e4000000e00003003400ce099000730f98003b
:1039f400030037004e0890000000ea00700f9800a2
:103a04007e0890004f05be004f04be000080fa00ff
:103a1400000006000e00fa00889fbe008a9fbe00c8
:103a2400500798005e0090000000e00017003d0081
:103a3400de00900000002c00808f500005003d0047
:103a440000002800de00900000804000100798006d
:103a54000b003700de00900000002c00808f500027
:103a6400040034005e0090000000ea001007980093
:103a74000300370010002800600798004d0037004d
:103a8400100020002007980015003700de00900089
:103a940000002400808f500005003400000028003e
:103aa400de00900001005000100798000a00370063
:103ab400de00900030062400808f500003003c009c
:103ac4005e0190001207980003003700f0ff270002
:103ad40060079800370037000000eb0020079800cb
:103ae4001e0090004780de00400798009e00900072
:103af400f007200000806000300798004e0090001e
:103b040021a3280000004000608078006103b90010
:103b1400010820003e009000008050006101b900bf
:103b24000235b80003b0b9000b027800000242006d
:103b34000790b90000024200840578004e0090000e
:103b44000000e80021a32800000040006080780005
:103b54006104b9003e0090006101b9000243b8005d
:103b640003c0b90007027800000242000990b900be
:103b740000024200840378000a0043008b804b005b
:103b84004909dd004700de0000007100c788de003f
:103b9400000f78002e0090000000e00003003200c7
:103ba4001e00ea0060079800020037001e0178003a
:103bb400620798006e0090004f05be004f04be00df
:103bc4000080fa00000006000200fa00000f7800ee
:103bd400000024001e0040008eff07000080fa0051
:103be400000006000a00fa00400798004e0090000a
:103bf4001f000700300798004e0090001c000700cb
:103c0400200798004e009000190007001007980044
:103c14000000eb00000f7800100037004e00900009
:103c2400c00090003e009000000040000081400071
:103c34004e009000c00090002e0090000000400054
:103c44000080400010007800000978003e009000d9
:103c54000000e800300798001e0fe8001e009000e6
:103c64009e0f1000edff39000080fa0000000600ee
:103c74000200fa00000f78001e0078006001900036
:103c84001e007800900890000100780000004000b9
:103c940000004100100178008100e9001e00780056
:103ca40011089800020078000080fa000000060065
:103cb4000a00fa00400798004e009000ecff07004d
:103cc400300798004e009000e9ff07002007980095
:103cd4004e009000e6ff0700100798000000eb007c
:103ce400000f7800130037004e009000c0009000d1
:103cf4003e00900000004000008140004e00900013
:103d0400c00090002e0090000000400000804000a1
:103d140010007800000978003e0090000000e800e0
:103d2400300798002e0090000000e800200798005b
:103d34001e0fe8001e0090009e0f1000eaff3900dd
:103d44000080fa00000006000c00fa0050079800fa
:103d54005e009000c6ff0700400798005e009000d8
:103d6400c3ff0700300798005e009000c0ff070003
:103d7400200798005e009000bdff07001007980020
:103d84000000eb00000f78001d0037005e0090007b
:103d9400c00090004e009000000040008081400070
:103da4005e009000c00090003e00900000004000c3
:103db40000804000100178005e009000c000900078
:103dc4002e009000000040000080400010007800a9
:103dd40000004100800978004e0090000000e800d7
:103de400400798003e0090000000e800300798006b
:103df4002e0090000000e800200798001e0fe80045
:103e04001e0090009e0f1000e0ff39000080fa00b1
:103e1400000006000c00fa00500798005e009000b5
:103e240093ff0700400798005e00900090ff070092
:103e3400300798005e0090008dff0700200798006f
:103e44005e0090008aff0700100798000000eb0056
:103e5400000f78001d0037005e009000c000900045
:103e64004e00900000004000808140005e00900001
:103e7400c00090003e009000000040000080400020
:103e8400100178005e009000c00090002e009000a9
:103e94000000400000804000100078000000510045
:103ea400800978004e0090000000e8004007980068
:103eb4003e0090000000e800300798002e009000bb
:103ec4000000e800200798001e0fe8001e00900084
:103ed4009e0f1000e0ff39000080fa000000060089
:103ee4000c00fa00500798005e00900060ff070085
:103ef400400798005e0090005dff070030079800bf
:103f04005e0090005aff0700200798005e009000b2
:103f140057ff0700100798000000eb00000f78001f
:103f24001d0037005e009000c00090004e0090001d
:103f340000004000808140005e009000c0009000be
:103f44003e00900000004000008040001001780016
:103f54005e009000c00090002e0090000000400021
:103f640000804000100078000090b90080097800bb
:103f74004e0090000000e800400798003e009000ca
:103f84000000e800300798002e0090000000e800d0
:103f9400200798001e0fe8001e0090009e0f1000de
:103fa400e0ff39000080fa00000006001400fa0067
:103fb400881f7800100f98001e0890002cff07003f
:103fc400000f98001e08900029ff07007007980052
:103fd4001e08900026ff0700600798001e08900046
:103fe40023ff0700500798000000eb0040079800eb
:103ff400360037001e089000c00090007e0090003c
:10400400000040000080400010007800cf80de00f7
:1040140020079800310798007e0090000000e80017
:10402400700798001e089000c00090006e00900079
:10403400000040000080400010007800cf80de00c7
:10404400008fbe006e0090000000e800600798003a
:104054001e00be00e00f5000e08f58001100320037
:104064001e089000c00090000e0890000000400060
:10407400008440001e01be002e009000be0090008f
:10408400ecf10700000c78000e0890000000e80036
:10409400000f98004e0090000000e80040079800d0
:1040a4000a0037009e08900020002000f0009800cd
:1040b4001e089000700140002300200071002900b8
:1040c4001e089000ef15070004003700ce00900092
:1040d4005e009000808f5000c6ff39004f047800c6
:1040e4000080fa00000006001600fa00000f980095
:1040f4000e089000defe0700700798000e0890007e
:10410400dbfe0700600798000e089000d8fe070049
:10411400500798000e089000d5fe0700400798004d
:104124000000eb00300798002c0037000e089000c8
:10413400c00090006e00900000004000008040002d
:1041440090007800210798006e0090000000e800bd
:10415400600798000e089000c00090005e00900078
:104164000000400000804000900078001107980093
:104174005e0090000000e800500798002e009000b8
:10418400200f98009e009000110f98001e089000c8
:10419400ae089000810f5000020034002e089000f9
:1041a400100f98009e089000010f78000e089000f0
:1041b400c00090007e00900000004000008040009d
:1041c4001e0878007e0090000000e8007007980048
:1041d4003e0090000000e80030079800be00900008
:1041e4004e009000808f5000d0ff39000080fa000c
:1041f400000006001600fa00000f98000e08900058
:104204009bfe0700700798000e08900098fe0700b8
:10421400600798000e08900095fe0700500798006c
:104224000e08900092fe0700400798000000eb0083
:10423400300798002c0037000e089000c000900052
:104244006e00900000004000008040009000780064
:10425400210798006e0090000000e80060079800b5
:104264000e089000c00090005e0090000000400026
:104274000080400090007800110798005e009000d4
:104284000000e800500798002e009000200f9800ce
:104294009e009000110f98001e089000ae08900038
:1042a400810f500002003d002e089000100f98006e
:1042b4009e089000010f78000e089000c000900046
:1042c4007e00900000004000008040001e0878003e
:1042d4007e0090000000e800700798003e00900007
:1042e4000000e80030079800be0090004e009000e7
:1042f400808f5000d0ff39000080fa0000000600d3
:104304001200fa00881f7800000f98000e08900031
:1043140057fe0700700798000e08900054fe07002f
:10432400600798000e08900051fe0700500798009f
:104334000e089000400490000e0890004cfe070008
:1043440000004000000044009000780041079800fd
:104354000e08900046fe0700300798006000b80081
:104364001007980021079800ce009000000220005a
:10437400808f5000080034000e089000c0009000a8
:104384007e00900000004000808040000000eb00b0
:1043940080087800290037003e0090000000e90002
:1043a400300798004580a90021028000100f2000ea
:1043b40000807000200288000e089000c000900069
:1043c4006e00900000004000008440000e08900041
:1043d400c00090005e00900000004000808040001b
:1043e4003e0090001201c3003802780000800800eb
:1043f40001000000b10278005200c0004e0090009d
:10440400f00f5000040034004e0090007000500083
:10441400400798005000c8004e0090000000c800fb
:104424000e089000c00090007e0090000000400044
:104434008080400010018000800878004f047800dc
:104444000080fa00000006001400fa00881f7800bb
:10445400100f98001e08900005fe0700000f98003a
:104464001e08900002fe0700700798001e089000c6
:10447400fffd0700600798001e089000fcfd070080
:10448400500798001e089000f9fd070040079800a7
:104494004e0090000000e000600032001e08900012
:1044a400c00090000e089000000040000080400012
:1044b40090007800310798000e0890000000e80092
:1044c400000f98003e009000cf80de001007980097
:1044d400210798001e089000c00090007e00900004
:1044e4000000400000804000be00900001087800f9
:1044f4001e089000c00090006e0090000000400074
:1045040000804000be0090000108780010002000e8
:10451400000f7800330037001e089000c0009000a0
:104524000e089000000040000080400090007800d9
:10453400310798000e0890000000e800000f980072
:104544001e089000c00090007e0090000000400013
:1045540000804000900078003e009000808f500062
:10456400070034001e089000c00090007e009000f8
:104574000000400000804000be0090000108780068
:104584001e089000c00090006e00900000004000e3
:1045940000804000900078003e009000808f500022
:1045a40007003d001e089000c00090006e009000bf
:1045b4000000400000804000be0090000108780028
:1045c4003e0090006101b9001e009000ae00900012
:1045d40000004100818049001007980021079800dd
:1045e4001e0fe8004e0090009e0f1000caff390015
:1045f4001e089000c00090005e0090000000400083
:10460400008440004e0090006101b8001e0090003c
:10461400ae00900087f00700000c78004f0478008b
:104624000080fa00000006001a00fa00881f7800d3
:10463400400f98004e0890008dfd0700300f980041
:104644004e0890008afd0700200f98004e08900045
:1046540087fd0700100f98004e08900084fd0700a6
:10466400000f98004e08900081fd07007007980025
:104674000000eb00600798004e0037004e089000e1
:10468400c00090002e089000000040000080400010
:1046940010007800cf80de00400798005107980092
:1046a4002e0890000000e800200f98004e089000ab
:1046b400c00090001e0890000000400000804000f0
:1046c40010007800cf80de002007980031079800a2
:1046d4001e0890000000e800100f98004e0890009b
:1046e400c00090000e0890000000400000804000d0
:1046f40010007800cf80de00008fbe000e0890000e
:104704000000e800000f98001e00be00e00f5000fb
:10471400e08f58001d0032004e089000c000900049
:104724003e0890000000400000844000ce0090004d
:104734002e009000000ab800ce0090003e009000c9
:104744000088b9000501780000014100ae00900026
:104754005e0090000088b9000001410082027800e8
:104764001e01be000400be0032f00700000c7800f9
:104774003e0890000000e800300f98006e009000a2
:104784000000e800600798000a003700ce08900097
:1047940020002000f00098004e08900070014000b6
:1047a40023002000710029004e08900035140700f2
:1047b40004003700ee0090007e009000808f5000cf
:1047c400aeff39004f0478000080fa0000000600b4
:1047d4001000fa00881f7800700798007e0090008f
:1047e40023fd0700600798007e00900020fd07006d
:1047f400500798007e0090001dfd070040079800b8
:104804007e0090001afd0700300798000000eb00be
:1048140020079800220037007e009000c00090001e
:104824005e0090000000400000804000900078008e
:10483400110798005e0090000000e80050079800ff
:104844007e009000c00090004e00900000004000e8
:1048540000804000100f78004e0090000000e80037
:10486400400798007e009000c00090006e00900009
:1048740000004000008440009e0078001e0090006c
:10488400a3fb0700000c78006e0090000000e80015
:10489400600798002e0090000000e80020079800b0
:1048a400ae0090003e009000808f5000daff390087
:1048b4004f0478000080fa00000006000c00fa00a3
:1048c400881f7800500798005e009000e8fc0700fd
:1048d400400798005e009000e5fc07003007980050
:1048e4005e009000e2fc0700200798000000eb0047
:1048f40010079800170037005e009000c000900079
:104904003e0090000000400000804000100f78003e
:104914003e0090000000e800300798005e00900020
:10492400c00090004e009000000040000084400051
:104934001e00780037fc0700000c78004e00900041
:104944000000e800400798001e0090000000e80006
:10495400100798009e0090002e009000808f500059
:10496400e5ff39004f0478000080fa0000000600db
:104974000c00fa00881f7800500798005e00900031
:10498400bbfc0700400798005e009000b8fc0700dd
:10499400300798005e009000b5fc070020079800df
:1049a4000000eb0010079800170037005e0090002d
:1049b400c00090003e0090000000400000804000d5
:1049c400100f78003e0090000000e80030079800c7
:1049d4005e009000c00090004e0090000000400077
:1049e400008440001e00780077fc0700000c78006b
:1049f4004e0090000000e800400798001e00900060
:104a04000000e800100798009e0090002e0090001f
:104a1400808f5000e5ff39004f0478000080fa00d1
:104a2400000006001600fa00889fbe008a9fbe00a0
:104a3400200f98002e0890008dfc0700100f98009e
:104a44002e0890008afc0700000f98002e089000a2
:104a540087fc0700700798002e089000c0009000a3
:104a64000e08900000004000008040009000780094
:104a7400610798002e089000c00090000e08900076
:104a840000004000008040000080e8001001780031
:104a9400520798002e089000c00090007e009000fd
:104aa400000040000080400090007800410798001a
:104ab4004e00900044fc0700300798004e00900020
:104ac400d4fb0700200798003e0090006103b90062
:104ad4006e0090006101b9000235b80003b0b9005e
:104ae4000b027800000242000790b9000002420065
:104af400840578002e0090006104b9005e009000e7
:104b04006101b9000243b80003c0b900070278008c
:104b1400000242000990b9000002420084037800b8
:104b24000600550087805d004109dd004f00de006e
:104b340000007100cf88de00100798003e0090004e
:104b44006103b9005e0090006101b9000235b8004c
:104b540003b0b9000b027800000242000790b900cc
:104b640000024200840578002e0090006104b90020
:104b74006e0090006101b9000243b80003c0b9009f
:104b840007027800000242000990b90000024200c6
:104b9400840378000a0043008b804b004109dd0048
:104ba4004f00de0000007100cf88de00000f7800a7
:104bb4002e089000c00090001e08900000004000e5
:104bc400008040009e009000010878002e089000ac
:104bd400c00090001e0890000000400000804000cb
:104be4000080e8001e0878004f05be004f04be0098
:084bf4000080fa000000060039
:020000040000fa
:104bfc000200fa00461c07000000eb00000f7800d2
:104c0c000b0037009e00e80000182200614078007d
:104c1c00004178009e007800001822006140780066
:104c2c0080407800c0cdb300651c07001e8fe800e3
:104c3c009e007800700d2000808f5000f1ff360030
:104c4c00371c07000080fa00000006000200fa0082
:104c5c00881f78002e1c07000000eb00000f780066
:104c6c000b0037001e04e8009e007800001822009c
:104c7c006140780080407800c0cdb3002c1c070048
:104c8c008040780000182200017478001e8fe80024
:104c9c009e007800700d2000808f5000f1ff3600d0
:104cac001f1c07004f0478000080fa00000006006b
:104cbc000600fa00000f78001e007800200798000c
:104ccc002e009000e10f50000b0032002e009000df
:104cdc00e20f50000c0032002e0090000000e000ab
:104cec00010032000c00370001182200c0c0b300d4
:104cfc00b0c098000b0037000118220080c0b30030
:104d0c00b0c09800070037000118220020c0b30083
:104d1c00b0c09800030037000080eb00100798002b
:104d2c00020037000000eb00100798001e009000f6
:104d3c000080fa00000006000400fa00000f780062
:104d4c00400420009e0f10000600320010012000cd
:104d5c009e0f100003003200300320009e0f100045
:104d6c0007003a001e0078008040780000182200ee
:104d7c00317098000000eb0010079800020037001b
:104d8c000080eb00100798001e0090000080fa00d5
:104d9c00000006000400fa00000f78001e00e0007e
:104dac0015003200000220009e0f1000120032008d
:104dbc00000320009e0f10000f00320000042000a2
:104dcc009e0f10000c003200000520009e0f1000fa
:104ddc0009003200000620009e0f10000600320071
:104dec00000620009e0f100003003200000120007e
:104dfc009e0f100007003a001e00780080407800db
:104e0c0000182200516898000000eb001007980071
:104e1c00020037000080eb00100798001e00900085
:104e2c000080fa00000006000a00fa002007980033
:104e3c0031079800ae0090003e009000808f50002b
:104e4c00030039000080eb00400798002200370077
:104e5c00be00900030382000808f500003003600d8
:104e6c008080eb00410798001b0037002e0090005b
:104e7c000000e900200798002e00900020479800c1
:104e8c002e0090004800de00304798003e00900055
:104e9c00004f78003e0090004800de00104798005c
:104eac0000182200be409000114898000018220003
:104ebc00ae40900031489800001822009e409000af
:104ecc0011509800001822009e4078003150980034
:104edc000000eb00400798004e0090000080fa00a4
:104eec00000006000a00fa0020079800310798001d
:104efc00ae0090003e009000808f500003003900ff
:104f0c000080eb00400798001f003700be009000a7
:104f1c00301f2000808f5000030036008080eb0093
:104f2c0041079800180037002e0090002047980089
:104f3c002e0090004800de00304798003e009000a4
:104f4c00004f78003e0090004800de0010479800ab
:104f5c0000182200be409000514898000018220012
:104f6c00ae40900071489800001822009e409000be
:104f7c0051509800001822009e4078007150980003
:104f8c000000eb00400798004e0090000080fa00f3
:104f9c00000006000e00fa00300798004107980048
:104fac0052079800be0090004e009000808f500079
:104fbc00030039000080eb006007980031003700d7
:104fcc00ce009000301f2000808f50000300360070
:104fdc008080eb00610798002a003700de0090000b
:104fec0030382000808f5000030036000080eb002a
:104ffc0060079800230037003e009000404798005f
:10500c003e0090004800de00504798004e00900093
:10501c00204798004e0090004800de003047980072
:10502c005e009000104798005e0090004800de0083
:10503c00004f780000182200de40900011509900bb
:10504c0000182200ce409000315099000018220028
:10505c00be4090005150990000182200ae409000c4
:10506c0071509900001822009e4078001158990048
:10507c00001822009e409000315899000000eb006f
:10508c00600798006e0090000080fa000000060097
:10509c000600fa0020479800314798000000eb000a
:1050ac00000f78000e0037009e00780000182200d8
:1050bc00e14078002e40900080cf500007003a006d
:1050cc009e00e800001822003e419000827078009b
:1050dc000000eb0020079800070037001e8fe80047
:1050ec009e007800700d2000808f5000eeff36007f
:1050fc000081eb00220798002e0090000080fa003f
:10510c00000006000800fa002047980021079800cc
:10511c000000eb00000f78000f0037009e007800b5
:10512c0000182200e14078002e40900080cf500003
:10513c0008003a009e00e80000182200e1407800c8
:10514c002e009000014878000000eb00300798001a
:10515c00070037001e8fe8009e007800700d2000bd
:10516c00808f5000edff36000080eb003007980078
:10517c003e0090000080fa00000006000200fa00d9
:10518c00004f780011479800001822009e409000b4
:10519c0011589800001822009e4078003158980051
:1051ac000080fa00000006000800fa00004f7800aa
:1051bc0011479800224798003347980044479800bd
:1051cc00f0c4b3009e4f1000030036000080eb00cb
:1051dc003007980011003700001822009e4078001c
:1051ec0051589800001822009e4090007158980069
:1051fc0000182200ae4090001160980000182200a8
:10520c00ce4090003160980000182200be40900003
:10521c00516098000000eb00300798003e009000b1
:10522c000080fa00000006000400fa00008fbe00a7
:10523c001e00be004a09dd004600de0000007100c1
:10524c00c608de0080407800001822001168980023
:10525c001e00be004209dd004e00de0000007100a1
:10526c00ce08de00804078000018220071609800a3
:10527c00011822000040eb00b06898000080fa0092
:10528c00000006000600fa0010079800210798009d
:10529c001e0090000000e000060032002e0090007e
:1052ac000000e00003003200a0ccb300004f7800f7
:1052bc000e0037001e0090000000e00003003200da
:1052cc00a0c4b300004f7800080037002e009000f7
:1052dc000000e00003003200a0c8b300004f7800cb
:1052ec0002003700a0c0b300004f78009e40780049
:1052fc0000182200716898000080fa000000060077
:10530c000200fa00004f7800001822009e4078003e
:10531c00517098000080fa00000006000200fa00ac
:10532c00000f78001e00e000070032000018220079
:10533c00d0c0900000c8b30080c0700000182200dc
:10534c0051c09800060037000018220050c0900091
:10535c00804078000174a1000018220051c0980010
:10536c000080fa00000006000400fa00004f7800ec
:10537c001147980022479800001822009e407800a0
:10538c0011c89800001822009e40900031c8980067
:10539c0000182200ae40900051c898000080fa001e
:1053ac00000006000200fa00004f78001147980038
:1053bc001e4078007f4060000045b00080407800bf
:1053cc000018220071c89800001822009e4090001e
:1053dc0011d098000080fa00000006000600fa00c8
:1053ec0010079800414798004e4090000000fb00c9
:1053fc00630060004500dd008040780000c8b30009
:10540c0000c04000804078000018220071d0990044
:10541c000000eb00000f78000c0037001e00780035
:10542c000000400032052000000141001e00780001
:10543c00800078001e0090000080400090407800b2
:10544c0000182200017178001e0fe8001e00780081
:10545c00e10f5000f1ff36000080fa00000006005a
:10546c000000fa002a1a07000018220070d09100e0
:10547c00004178000018220060d091008040780034
:10548c00c0cdb3004e1a0700251a070000182200e1
:10549c0080e890000018220020d090000200070045
:1054ac000080fa00000006000600fa004047980051
:1054bc00514798000000eb00000f7800141a070009
:1054cc000000eb00100798001b0037009e009000b6
:1054dc0000182200e14078004e40900080cf500030
:1054ec00120039009e00900000182200e140780064
:1054fc005e40900080cf50000c003e001e009000db
:10550c008000e8000018220061407800004178001b
:10551c009e009000001822006140780080407800c6
:10552c00c0cdb300261a07001e0fe8001e00900025
:10553c000080e800100798009e009000700d20007d
:10554c00808f5000e1ff3600f51907001e0078002f
:10555c000080fa00000006000400fa001007980012
:10556c000000eb00000f78000c0037001e007800e4
:10557c0000004000b2062000000141001e0078002f
:10558c00800078001e009000008040009040780061
:10559c0000182200017178001e0fe8001e00780030
:1055ac00e10f5000f1ff36000080fa000000060009
:1055bc000200fa00004f78001147980000182200f2
:1055cc009e40780051f89800001822009e409000f0
:1055dc0071f898000080fa00000006000200fa0042
:1055ec00004f780011479800001822009e40780068
:1055fc0011409900001822009e4090003140990003
:10560c000080fa00000006000200fa00004f78004b
:10561c0011479800001822009e40780051409900d4
:10562c00001822009e409000714099000080fa0002
:10563c00000006000200fa00004f78001e80fb00fc
:10564c004400dd006f4040008040780000182200cc
:10565c00515899000080fa00000006000200fa0080
:10566c00004f7800114798001e80fb004400dd00bd
:10567c00804078001e4090006f40600000c04000e9
:10568c008040780000182200715899000080fa00c0
:10569c00000006000200fa00004f78001147980045
:1056ac001e4090000080fb004400dd00804078002c
:1056bc001e4078006f40600000c0400080407800c1
:1056cc0000182200116099000080fa00000006000a
:1056dc000400fa00008fbe001e00be004088de00f1
:1056ec00cf80de00804078000018220031609900e5
:1056fc001e00be004809dd004800de0000007100fd
:10570c00c888de00804078000018220051609900a3
:10571c001e0078008040780000182200716099000b
:10572c000080fa00000006000200fa00004f78002a
:10573c00001822009e407800116899000080fa0041
:10574c00000006000400fa00000f78001107980012
:10575c001e0078004800de0080407800001822000f
:10576c00716899001e0078008040780000182200b3
:10577c00117099001e0090004800de0080407800f7
:10578c0000182200317099001e00900080407800b3
:10579c0000182200517099000080fa0000000600e9
:1057ac000600fa00004f7800114798002247980035
:1057bc00334798004447980055479800001822003a
:1057cc00ae4090007170990000182200be4090000d
:1057dc0011789900001822009e40780031789900c9
:1057ec00001822009e409000517899000018220069
:1057fc00ce4090007178990000182200de40900095
:10580c0011c099000080fa00000006000a00fa009e
:10581c00000f7800110798002207980033079800b2
:10582c00200d20001e0f40001e009000200db00027
:10583c00100798002e009000670040002007980089
:10584c003e00900067004000300798009e009000da
:10585c0020352000808f5000030036000080eb00c4
:10586c004007980049003700be009000701e2000d1
:10587c00808f5000030036000080eb00400798003a
:10588c00420037001e0090009e0f100004003100f3
:10589c00ae0090003e009000808f50000300390055
:1058ac000080eb004007980038003700501a2000a9
:1058bc009e0f10000c0036009e00900090272000d8
:1058cc00808f500008003e00ae009000700a20004f
:1058dc00808f500004003600be0090006014200041
:1058ec00808f5000030036000080eb0040079800ca
:1058fc00260037001e0078004800de00804078004b
:10590c000018220031c099001e00780080407800f9
:10591c000018220051c099001e0090004800de00c3
:10592c00804078000018220071c099001e00900081
:10593c00804078000018220011c899002e009000b9
:10594c004800de00804078000018220031c8990021
:10595c002e009000804078000018220051c8990059
:10596c003e0090004800de008040780000182200c5
:10597c0071c899003e009000804078000018220009
:10598c0011d099000000eb00400798004e009000e9
:10599c000080fa00000006000600fa0010079800cc
:1059ac00210798001e0090000000e0000600320065
:1059bc002e0090000000e00003003200c0c3b300d2
:1059cc00004f78000e0037001e0090000000e00031
:1059dc0003003200c0c2b300004f7800080037004b
:1059ec002e0090000000e00003003200c0c1b300a4
:1059fc00004f780002003700c0c0b300004f7800a1
:105a0c009e4078000018220031d099000080fa00e6
:105a1c00000006000200fa00000f78001e00e000f3
:105a2c000700320000182200f0709000f0c7b3009d
:105a3c0080c06000001822007170980006003700ca
:105a4c0000182200f070900000c8b30080c07000f5
