:020000040000fa
:080000000001040000000000f3
:020000040000fa
:10020000cfa52000807922000001880000000000b6
:10021000050007000c000700700402000000000049
:100220000040da000000fe004440a9000000200069
:100230000000e0000300320000002000a001880060
:100240004440a800000006000094210001002000a6
:100250001600370062004000e080480091018800ed
:100260009001ba0062004000e080480091018800df
:100270009002ba0062004000e08048000002eb00fb
:100280006028e10005003a008301e900070033001f
:10029000038009000059eb00040037006128e100e9
:1002a000010032000082eb00050007009101880088
:1002b0001001ba000200e000e6ff3a00000005006d
:1002c000910188008002780062004000e0804800d0
:1002d0003559ba008301e900080032002559ba00f7
:1002e0008301e900050032000400e000f4ff320061
:1002f00015d9ba008301e900f1ff3a0000000600b9
:10030000ec874700889fbe008a9fbe008c9fbe007e
:100310008e1f7800f0b79f0081bf9f008204780095
:1003200000047800010037000804e800184778004e
:100330000e00fb008d0007000000e000faff3a000d
:10034000d0c2b300804f57000500320000c0e90062
:10035000804f57000200320000477800010037004c
:100360000804e8000900e00045003500e18f540072
:100370004300320040022000808f540040003c00c7
:100380000900e0000e003400f08f54001a003a001b
:1003900000c3b300984f100016003a009840900038
:1003a00080c7b30080cf50000300320080c5b30087
:1003b00080cf50000f003a000884e8000e0037009c
:1003c000a900200000c3b300984f10000a003a00b3
:1003d0009840900080c7b30080cf500004003200e6
:1003e0008900200080c5b30080cf500002003a0091
:1003f0000884e800090120000805780001003700a2
:100400000a05e80000c3b3009a4f1000fcff320059
:100410008a0578006066b8000e003700909e2000c4
:1004200000425200c4ef9f006149b9000c00be00b9
:10043000f90007004fea97000401fb00cf91de00ae
:100440008b05e800ccb79f00ddb79f000006410098
:10045000818649001b00fb004c00070080007800eb
:1004600009017800909e20004f00070000027800ec
:100470000000e000e9ff3a008b0f540006003a004c
:100480000fb897000000e00029003200ffb097008d
:1004900001087800260037008a805500409c200023
:1004a000694078000000fb00008050001600330017
:1004b0004240a9000f003c004fe997000200fb00fa
:1004c000cf80de000000560081805e00800f560065
:1004d000818f5e00070039006149b900d400070030
:1004e0004fb19700dfb19700820f5000838f580003
:1004f0000500320020022000d05288000086eb0068
:100500008086eb0005003700d0c2b300804f570053
:1005100002003a0060061600e0861e008fb99700c0
:100520000300e000030032008b097800010037006f
:100530006066b8000c00be004f0778004f06be0092
:100540004f05be004f04be00cf00b1000000060002
:1005500080007800010037000000e8001004e0008f
:10056000fdff3a0001005000000006006900e100b4
:10057000040035006d00e100030034000002b1000a
:100580000100320000000500100005008000780026
:100590001104b100030035009101b10001003c00dd
:1005a0000050a000000006000600370090cf1000a9
:1005b00002003a0000017800040037000000e80063
:1005c0000201e9000200e000f8ff3a0002007800b2
:1005d00000000600c05280000000e0000100320070
:1005e00000000100a0a5200000000600889fbe00ba
:1005f0008a9fbe00010578000100e000040035007c
:1006000008003c000000e000200032000500370038
:1006100060001000e080180002003b0001f02c0098
:100620001a0037000004be006011b8006b092000fa
:100630000982cf00020039000882cf000441b000d7
:10064000694252000e00320008003b0082817100b6
:10065000610164008904d1000884d3008b05e8009f
:100660000442e800f9ff3a0005003700080444009e
:1006700089844c008b05e9000442e900fbff3a0045
:10068000070007000af0a70001f0a0004f05be0018
:100690004f04be00000006001400200026003700b2
:1006a00081002000618055000b003d000b00200000
:1006b00061fe2f000100e1001d0034008281710005
:1006c000610164008904d1000884d3000000e800bf
:1006d000faff3a007100200061006400030070001e
:1006e000020060000900320061044400e0844c0014
:1006f0000988a500050032008b05e8006808e100c4
:1007000002003a008904d1000884d300f20f2000cf
:100710000258e10005003d00c75ddd00f907b200a9
:100720008980750008007800000006000bf827009b
:100730008b00780000000500889fbe008a9fbe00e5
:10074000841f7800170007004f0078001100330065
:10075000f0ff2f00838f6c0006003b00040565004e
:100760000a00a7000800370009f0a60010002000ca
:1007700008003700820f5400838f5c0003003900ab
:100780001000200001003e000000200009f0a7003a
:100790000000ea004f05be004f04be000000e0006c
:1007a000000006000004be00060007000003be00b3
:1007b0000405be000200be0002000700844f750061
:1007c00000000600c70ade00f107b200f50fb20014
:1007d00008003200e1cf4200020032000170a000a8
:1007e00024000500810f700001003200040805009c
:1007f00044000500810f700002003a00140005005b
:100800008502e9000000400081c04800fcff3b0079
:100810000170a00024000500020ab900001bb90005
:100820000200b80081004200810043000000060081
:100830006022b800060220000000d0008180d200b3
:100840000482d2008582d2000000a0000202520081
:1008500083825a00030031000202420083824a0070
:100860000000a1000603e900f3ff3a0000000600c3
:100870000000fa00e6c2bf000080fb004600de0078
:10088000614060000081fb00e7c2bf000080fb0008
:100890000000d100614060000080fb0000004000cb
:1008a00080007800e7c2bf00614060000080fb006c
:1008b000008040000000400080007800e6c2bf00d9
:1008c0000080fb004700de000080fb00008040004d
:1008d00000004000000041000080fa000000060017
:1008e0000600fa00b4070700000a070040c7bf006f
:1008f000614060000004e000020032004007a900ef
:100900000000fe00daff07000000e00037003a00b8
:1009100030c0b3001d0707000000eb00200798005f
:100920001e0037002e00900011002000e70707008e
:100930000000eb0010079800030037001e00900035
:100940000000e800100798009e009000f052270079
:10095000808f5000f9ff34002e0090000000e90065
:100960008000eb00d90707000000eb00100798009b
:10097000030037001e0090000000e80010079800f8
:100980009e009000f0522700808f5000f9ff340045
:100990002e0090000000e800200798002e00900034
:1009a000e70f5000dfff34008000eb0070002000f4
:1009b000c60707000000eb0010079800030037008f
:1009c0001e0090000000e800100798009e009000b4
:1009d000f0522700808f5000f9ff340011002000f2
:1009e00080002000b90707003800370010c0b300ae
:1009f000e60607000000eb00200798001e00370005
:100a00002e00900011002000b00707000000eb004e
:100a100010079800030037001e0090000000e80057
:100a2000100798009e009000f0522700808f500021
:100a3000f9ff34002e0090000000e9008000eb0078
:100a4000a20707000000eb00100798000300370022
:100a50001e0090000000e800100798009e00900023
:100a6000f0522700808f5000f9ff34002e009000d4
:100a70000000e800200798002e009000e70f5000cb
:100a8000dfff34008000eb00700020008f070700bc
:100a90000000eb0010079800030037001e009000d4
:100aa0000000e800100798009e009000f052270018
:100ab000808f5000f9ff3400ff060700004f7800d8
:100ac0001e00fb001100200080070700ffff370019
:100ad0001800fa000000eb002007980000832000b7
:100ae0005c030700300798000000eb001007980037
:100af000bd0037001e0090007d00b900e6004000f8
:100b00000083200000804000104078008040eb000f
:100b1000715798000004e00002003a0012c0b300d0
:100b2000725798001e0090007d00b900e700400059
:100b30000083200000804000104078008040eb00df
:100b4000615798000004e00002003a0012c0b300b0
:100b500062579800fe5090006e51900002c06000f5
:100b60000080fb00200f98001e0090007d00b9005f
:100b7000e800400000832000008040001040780022
:100b80008000eb00110f98000004e00002003a0022
:100b900012002000120f98002e0890009e0890006e
:100ba00001006000000f98001e0090007d00b90059
:100bb000e5004000008320000080400010407800e5
:100bc0000001eb0072079800e84f500002003a0065
:100bd00010002000700798008e0890007e019000a1
:100be000028060000000e0007c0032001e009000e7
:100bf0007d00b90080007800008320000080400064
:100c0000a70307001e0090007d00b900e800400027
:100c10001083200000804000904078000040eb00ee
:100c2000504f980050c6b30080cf500002003a00e9
:100c300011c0b300514f98001e0090007d00b90014
:100c4000e9004000108320000080400090407800c0
:100c50000041eb00424f9800d0c2b30080cf50005b
:100c600002003a0010c0b300404f9800de489000e8
:100c70004e49900002c060000080fb0050079800c1
:100c80001e0090007d00b900ea00400010832000a3
:100c900000804000904078000000eb004007980082
:100ca00000c7b30080cf500002003a0011002000be
:100cb000410798005e019000ce00900001006100a5
:100cc0000000e000450032000000eb00000f78005b
:100cd00020003700ae0190001e0278001e00900038
:100ce0001e0178007d00b9008200400000832000d2
:100cf00000804000104178006b18b900840040006b
:100d0000209520000080400002487800ae0190004d
:100d10001e0278001e0090009e007800678140004f
:100d20007d00b90002004000e80040001083200070
:100d30000080400010407800004178006b18b90036
:100d40008400400080952000008040000248780028
:100d50001e0fe800320020009e0f1100ddff34005e
:100d60002e0090006b00b90080007800c095200034
:100d7000808040000040eb00804878004000200068
:100d8000000f78000f003700ae0190001e027800bf
:100d90001e0090001e0178007d00b9008200400016
:100da0000083200000804000104178006b18b900db
:100db0008400400020952000008040000248780018
:100dc0001e0fe800500020009e0f1000eeff3400c0
:100dd0002e0090000000e800200798001e00900000
:100de0000000e800100798009e0090003e00900070
:100df000808f50003fff35002e0090000080fa00e9
:100e0000000006000600fa00009c20000701070011
:100e10002fff0700100798001e0090000000e00060
:100e20000a00320080952000af01070020952000c5
:100e300090030700004f7800009c2000aa010700e3
:100e40001e00fb002007980002003700300620003b
:100e5000200798002e0090000080fa000000060095
:100e60002e00fa00e400470020c0b300804878005c
:100e7000e400470020c5b30090409800e40047001c
:100e800060c2b300a0409800e40047000040eb00bf
:100e9000b0409800e40047000040eb00c0409800dc
:100ea000e400470080c7b300d0409800e40047004a
:100eb00030c0b300e040980064004700710020009b
:100ec000c30807000000eb00100798000040eb008b
:100ed000004f7800000037001e009000800078006e
:100ee0006b00470001004000d70807000000e00049
:100ef000060032009e0090006b004700614f7800b2
:100f00001e0090000000e8001007980030c0b300f9
:100f10009e4f1000f0ff3a006b00470030409000f9
:100f20000000fb00e60040001e009000808f500093
:100f3000e9ff3c001e019000eb0047000040eb0081
:100f400000f178000000eb00100798000b0037005c
:100f50001e0190001e009000e70040006b0047005b
:100f6000e1407800900220000e00400001717800fe
:100f70001e0090000000e800100798006b0047007a
:100f8000604090008000fb001e009000808f5000a9
:100f9000efff3c001e019000910220008e80400077
:100fa0000040eb0000f17800900220000e004000ad
:100fb000a20020008000eb00d1fc07000080fa00b6
:100fc000000006001600fa00e400470020c0b3004d
:100fd00080487800e400470020c5b30090409800a6
:100fe000e4004700a0c1b300a0409800e40047001f
:100ff0000040eb00b0409800e40047000040eb00e8
:10100000c0409800e4004700c0c6b300d04098003c
:10101000e400470030c0b300e0409800640047009f
:10102000710020006a0807000000eb00100798001c
:101030000040eb00004f7800000037001e009000d9
:10104000800078006c004700010040007e08070027
:101050000000e000070032009e0090006c00470096
:1010600000804000104f78001e0090000000e80053
:101070001007980030c0b3009e4f1000efff3a00f9
:101080006c004700304090000000fb00e60040008c
:101090001e009000808f5000e8ff3c009e009000f2
:1010a0006c004700808040000040eb0080487800e2
:1010b0006c004700604090000000fb000080fa00d8
:1010c000000006001600fa00e400470020c0b3004c
:1010d00080487800e400470020c5b30090409800a5
:1010e000e400470010c1b300a0409800e4004700ae
:1010f00010c0b300b0409800e40047000040eb008f
:10110000c0409800e400470040c6b300d0409800bb
:10111000e400470010c0b300e0409800e40047003e
:1011200030c0b300f0409800640047008100200008
:10113000270807000000eb00100798000040eb00b4
:10114000004f7800000037001e00900080007800fb
:101150006c004700010040003b0807000000e00071
:10116000070032009e0090006c00470000804000a5
:10117000104f78001e0090000000e8001007980053
:1011800030c0b3009e4f1000efff3a006c004700e4
:10119000304090000000fb00e60040001e00900080
:1011a000808f5000e8ff3c009e0090006c004700dc
:1011b000808040000040eb00804878006c004700d1
:1011c000604090000000fb000080fa000000060074
:1011d0000400fa000de2a900de62a900e262a900a3
:1011e0006000b800008fbe0004003700100020002f
:1011f000010020001e0f40005e9748001e00be0048
:10120000fafc0700626626006366240022fd0700e0
:101210000000e000f5ff3500e262a800de62a800f1
:10122000b20707000080fa00000006002c00fa0058
:1012300050179800e400470020c0b30080487800b1
:10124000e400470020c5b30090409800e400470048
:1012500060c1b300a0409800e40047000040eb00ec
:10126000b0409800e40047000040eb00c040980008
:10127000e400470080c6b300d0409800e400470077
:1012800030c0b300e04098006400470071002000c7
:10129000cf0707000000eb00100798000040eb00ac
:1012a000004f7800000037001e009000800078009a
:1012b0006b00470001004000e30707000000e0006a
:1012c000070032009e0090006b00470061407800ec
:1012d000004f78001e0090000000e8001007980002
:1012e00030c0b3009e4f1000efff3a006b00470084
:1012f000304090000080fb00e60040001e0090009f
:10130000808f5000e8ff3c001e019000eb0047007a
:101310000040eb0000f178000000eb00100798009f
:101320000c0037001e009000800078005e109000d6
:10133000008140001e009000e80040006b00470064
:1013400061407800004978001e0090000000e8002d
:10135000100798006b004700704090008080fb00f1
:101360001e009000808f5000eeff3c001e00900099
:10137000800078005e109000808040000040eb000c
:10138000804878006b004700604090000000fb0040
:101390000080fa00000006003600fa00201f9800c6
:1013a000e400470020c0b30080487800e400470014
:1013b00020c5b30090409800e400470030c0b3005f
:1013c000a0409800e40047000040eb00b0409800c7
:1013d000e40047000040eb00c0409800e4004700f4
:1013e00050c5b300d0409800e400470030c0b300bf
:1013f000e040980064004700710020007407070077
:101400000000eb00100798000040eb00004f780050
:10141000000037001e009000800078006b0047003d
:1014200001004000880707000000e00006003200cd
:101430009e0090006b004700614f78001e009000f6
:101440000000e8001007980030c0b3009e4f100065
:10145000f0ff3a006b004700304090000000fb00b6
:10146000e60040001e009000808f5000e9ff3c0025
:101470001e019000eb0047000040eb0000f17800f7
:101480000000eb00100798000c0037001e009000d1
:10149000800078002e189000008140001e0090000f
:1014a000e80040006b004700614078000049780088
:1014b0001e0090000000e800100798006b00470035
:1014c000704090008000fb001e009000808f500054
:1014d000eeff3c006b004700604090000000fb0006
:1014e0000080fa00000006003000fa007017980033
:1014f0007e10900016fc0700000f7800e600470001
:1015000020c0b30080487800e600470020c5b30043
:1015100090409800e600470070c1b300a0409800da
:101520001e0078008040e8006600470031409800c7
:10153000e60047000040eb00c0409800660047000e
:1015400090409000660047002040900080c040001e
:10155000660047003040900080c0400066004700b1
:10156000514098001e0078008040780066004700d7
:10157000614098000000eb00200798000d00370044
:101580002e009000670140002e009000800078003f
:101590007e10900000804000904078006600470078
:1015a00000004100014878002e0090000000e80093
:1015b000200798002e0090009e0f5000f0ff35008d
:1015c0001e007800e7004000660047008080400071
:1015d00030c0b300804878001e007800e80040006a
:1015e00066004700fa0607000000eb00200798009d
:1015f0000040eb0020479800000037002e009000cc
:1016000080007800400220000e00400001004000f1
:101610000d0707000000e00009003200ae00900056
:10162000400220000e004000008040009040780002
:10163000214798002e0090000000e8002007980045
:101640002e409000e34f5000ecff3a004002200093
:101650000e004000304090000000fb00e60040001b
:101660002e009000808f5000e4ff3c00ae00900000
:10167000400220000e004000808040000040eb004f
:1016800080487800400220000e004000604090003a
:101690000000fb000080fa00000006003a00fa009b
:1016a000401f98004e189000a9fb0700000f78001b
:1016b0001e0fe800e600470020c0b3008048780015
:1016c000e600470020c5b30090409800e6004700c0
:1016d00040c0b300a04098001e0078008040e800a1
:1016e0006600470031409800e60047000040eb00ec
:1016f000c040980066004700904090006600470098
:101700002040900080c040006600470030409000bc
:1017100080c0400066004700514098001e007800dd
:101720008040780066004700614098000000eb00b0
:10173000200798000d0037002e0090006701400040
:101740002e009000800078004e189000008040002d
:101750009040780066004700000041000148780092
:101760002e0090000000e800200798002e00900056
:101770009e0f5000f0ff35001e007800e70040008b
:10178000660047008080400030c0b3008048780089
:101790001e007800e8004000660047008c06070045
:1017a0000000eb00200798000040eb002047980065
:1017b000000037002e00900080007800e00220003a
:1017c0000e004000010040009f0607000000e000fe
:1017d00009003200ae009000e00220000e00400040
:1017e0000080400090407800214798002e00900033
:1017f0000000e800200798002e409000e34f5000c2
:10180000ecff3a00e00220000e0040003040900063
:101810000000fb00e60040002e009000808f50008a
:10182000e4ff3c00ae009000e00220000e0040000b
:10183000808040000040eb0080487800e0022000fb
:101840000e004000604090000000fb000080fa00a5
:10185000000006004800fa0020279800e800470032
:1018600020c0b30080487800e800470020c5b300de
:1018700090409800e80047000040eb00a04098002e
:10188000e800470030c0b300b0409800e8004700cf
:101890000040eb00c0409800e800470050c5b3008e
:1018a000d0409800e800470050c0b300e0409800e6
:1018b000e8004700a0c0b300f0409800e8004700ef
:1018c0000040eb0080489800e800470030c0b300bb
:1018d0009048980068004700a10020003c060700df
:1018e0000000eb00300798000000eb0010079800a4
:1018f0001e009000200798000040eb00004f780089
:101900000000eb0020079800000037002e00900038
:101910008000780072004700010040004a0607007e
:101920000000e00007003200ae00900072004700a7
:1019300000804000104f78002e0090000000e8006a
:101940002007980031c0b3009ecf1000efff3a008f
:1019500072004700304090000000fb00e6004000ad
:101960002e009000808f5000e8ff3c00720047007e
:101970009040900090c6b30080cf50002f003a00f6
:101980000000eb00200798000f0037003e00900099
:101990007d00b900800078002e209000008140007a
:1019a000ae0190002e009000e6004000720047005b
:1019b0000080400010407800807179002e00900077
:1019c0000000e800200798002e009000e50f50006e
:1019d000eeff34000000eb002007980011003700f4
:1019e0003e0090007d00b900800078002e2090001d
:1019f00000814000ae0190002e009000ec004000fd
:101a0000720047000080400010407800804078005d
:101a100003004100614098002e0090000000e800a3
:101a2000200798002e009000e20f5000ecff3400d9
:101a30003e0090000000e800300798007200470068
:101a4000904090000040eb0060c7980030c4b300a5
:101a500080cf50000200320011c0b30061c798006f
:101a6000720047002040900070c798007ec0900030
:101a70000004e0000200320011c0b30071c79800fa
:101a80007ec09000eec0900000c060000004e00046
:101a90009bff3a003e0090000080fa000000060024
:101aa0004600fa0020279800e400470020c0b30059
:101ab00080487800e400470020c5b30090409800bb
:101ac000e400470020c0b300a0409800e4004700b5
:101ad00060c0b300b0409800e40047000040eb0055
:101ae000c0409800e4004700a0c5b300d040980073
:101af0002e2090001040780080407800640047005d
:101b0000614098002e2090001040900080407800a6
:101b100064004700714098002e2090002040900003
:101b20008040780064004700014898002e20900013
:101b300030409000804078006400470011489800d1
:101b40002e209000404090008040780064004700c4
:101b5000214898002e20900050409000804078004e
:101b60006400470031489800e400470030c0b300eb
:101b7000c048980064004700d10020009405070089
:101b80000000eb00100798000040eb00004f7800c9
:101b9000000037001e0090008000780071004700b0
:101ba00001004000a80507000000e0000600320028
:101bb0009e00900071004700614f78001e00900069
:101bc0000000e8001007980030c0b3009e4f1000de
:101bd000f0ff3a0071004700304090000000fb0029
:101be000e60040001e009000808f5000e9ff3c009e
:101bf0001e019000f10047000040eb0000f178006a
:101c000071004700604090000004e00014003a00ba
:101c10000000eb00100798000b0037001e01900039
:101c20001e009000ee00400071004700e140780087
:101c30002e20900000004100114898001e009000e6
:101c40000000e8001007980071004700504890001d
:101c50008000fb001e009000808f5000efff3c00d2
:101c600071004700604090000000fb000080fa0017
:101c7000000006004a00fa0030279800e400470000
:101c800020c0b30080487800e400470020c5b300be
:101c900090409800e4004700a0c0b300a040980026
:101ca000e400470080c0b300b0409800e400470063
:101cb0000040eb00c0409800e400470040c6b3007d
:101cc000d0409800e400470010c0b300e040980006
:101cd0003e209000904078006400470071409800da
:101ce0003e2090000000e80090407800640047002b
:101cf000014898003e2090000080e8009040780065
:101d000064004700114898003e20900063004000a6
:101d10009040780064004700214898003e209000e1
:101d2000640040009040780064004700314898000b
:101d30003e2090006500400090407800640047001d
:101d400041489800e400470010c0b300d048980014
:101d5000e400470030c0b300e0489800640047004a
:101d6000f10020001a0507000000eb0010079800a2
:101d70000040eb00004f78000000eb0010079800d7
:101d8000000037001e0090008000780073004700bc
:101d9000010040002c0507000000e00006003200b2
:101da0009e00900073004700614f78001e00900075
:101db0000000e8001007980030c0b3009e4f1000ec
:101dc000f0ff3a0073004700304090000000fb0035
:101dd000e60040001e009000808f5000e9ff3c00ac
:101de00073004700a04090000041eb0012cf980024
:101df00090c6b30080cf50000200320010c0b30084
:101e000010cf980073004700204090008040eb0006
:101e100001cf9800eb4f50000200320012c0b30017
:101e200002cf98009ec890000ec9900002c06000ca
:101e30000004e000d0ff3a007300470060409000cb
:101e40000000fb000080fa00000006001c00fa0001
:101e5000e400470020c0b30080487800e400470059
:101e600020c5b30090409800e4004700d0c0b30004
:101e7000a0409800e400470010c0b300b0409800b4
:101e8000e40047000040eb00c0409800e400470039
:101e900000c6b300d0409800e400470010c0b30073
:101ea000e0409800e400470030c0b300f0409800e4
:101eb0006400470081002000c50407000000eb001b
:101ec000100798000040eb00004f7800000037003a
:101ed0001e009000800078006c0047000100400068
:101ee000d90407000000e000070032009e009000c7
:101ef0006c00470000804000104f78001e009000ea
:101f00000000e8001007980030c0b3009e4f10009a
:101f1000efff3a006c004700304090000000fb00eb
:101f2000e60040001e009000808f5000e8ff3c005b
:101f30009e0090006c004700808040000040eb0055
:101f4000804878006c004700204090008040eb0003
:101f5000215f9800ed4f500002003a0012c0b3001c
:101f6000225f98006c00470060409000305f98004e
:101f70003e5890000004e0000200320011c0b3009f
:101f8000315f98003e5890002e599000004061004b
:101f90000004e000050032006c0047006040900043
:101fa0000000fb00400f9800360037000000eb00f7
:101fb00010079800000037001e0090008000780095
:101fc0006c004700010040009f0407000000e00093
:101fd000070032009e0090006c0047000080400027
:101fe000104f78001e0090000000e80010079800d5
:101ff00030c0b3009e4f1000efff3a006c00470066
:10200000304090000000fb00e60040001e00900001
:10201000808f5000e8ff3c006c004700904090002b
:102020000041eb007257980090c6b30080cf50007b
:102030000200320010c0b300705798006c004700d7
:10204000a04090000041eb006257980010c5b3001b
:1020500080cf50000200320010c0b30060579800db
:10206000fe5090006e51900002c060000004e0003d
:10207000ceff3a006c004700604090000000fb007b
:10208000400f98004e0890000080fa000000060003
:102090008a00fa0030879800014f9900e400470059
:1020a00020c0b30080487800e400470020c5b3009a
:1020b00090409800e4004700f0c0b300a0409800b2
:1020c0000e489100e3404000640047003140980012
:1020d000e40047000040eb00c04098006400470067
:1020e00090409000640047002040900080c0400075
:1020f000640047003040900080c04000640047000a
:1021000051409800e400470010c0b300e040980040
:10211000640047008e48910071409800e400470039
:102120000040eb00804898000000eb00100798008a
:102130000d0037001e009000690140001e00900055
:10214000800078003e809000008040009040780041
:102150006400470000004100014878001e00900024
:102160000000e800100798000e4891008000fb0076
:102170001e009000808f5000eeff3c000e48910042
:102180000000fb00e9004000640047008080400040
:1021900030c0b300804878000e4891000000fb007a
:1021a000ea00400064004700090407000000eb005b
:1021b000100798000040eb00004f78000000370047
:1021c0001e00900080007800c00720000e00400034
:1021d000010040001c0407000000e000080032007d
:1021e0009e009000c00720000e00400000804000cc
:1021f000104f78001e0090000000e80010079800c3
:1022000030c0b3009e4f1000edff3a00c007200021
:102210000e004000304090000000fb00e60040004f
:102220001e009000808f5000e5ff3c009e00900053
:10223000c00720000e004000808040000040eb00fe
:1022400080487800c00720000e00400060409000e9
:102250000000fb000080fa00000006004800fa00c1
:10226000e600470020c0b30080487800e600470041
:1022700020c5b30090409800e6004700c0c1b300fd
:10228000a0409800e60047000040eb00b0409800f6
:10229000e60047000040eb00c0409800e600470021
:1022a000e0c6b300d0409800e600470030c0b3005d
:1022b000e04098006600470071002000c40307005a
:1022c0000000eb00200798000000eb0010079800ca
:1022d0000040eb00004f7800000037001e00900027
:1022e000800078006d00470001004000d603070021
:1022f0000000e000060032009e0090006d004700e4
:10230000614f78001e0090000000e8001007980060
:1023100030c0b3009e4f1000f0ff3a006d00470040
:10232000304090000000fb00e60040001e009000de
:10233000808f5000e9ff3c006d0047007040900026
:102340000000fb00200798002e0090000000e00035
:10235000150032000000eb00100798000c00370059
:102360001e0190001e009000e80040006d00470034
:10237000614078008040780000802000000041002b
:10238000014878001e0090000000e8001007980047
:102390002e0090006600b900800078001e009000ba
:1023a000808f5000eeff3c002e0090000000fb00ec
:1023b0000080fa00000006001e00fa00600f98007e
:1023c000e400470020c0b30080487800e4004700e4
:1023d00020c5b30090409800e4004700b0c1b300ae
:1023e000a0409800e400470060c0b300b0409800ef
:1023f000e40047000040eb00c0409800e4004700c4
:1024000030c7b300d04098006e0890006600b90055
:10241000800078000080200000804000104078009c
:102420008040780064004700614098006e0890008a
:102430006600b9008000e8000080200000804000b5
:102440001040780080407800640047007140980098
:102450006e0890006600b9008080e80000802000cf
:102460000080400010407800804078006400470001
:10247000014898006e0890006600b900e300400033
:1024800000802000008040001040780080407800ec
:1024900064004700114898006e0890006600b9007b
:1024a000e4004000008020000080400010407800e0
:1024b0008040780064004700214898006e08900032
:1024c0006600b900e5004000008020000080400068
:1024d0001040780080407800640047003148980040
:1024e000e400470030c0b300c048980064004700d3
:1024f000d1002000360307000000eb001007980011
:102500000040eb00004f7800000037001e009000f4
:102510008000780071004700010040004a03070076
:102520000000e000060032009e00900071004700ad
:10253000614f78001e0090000000e800100798002e
:1025400030c0b3009e4f1000f0ff3a00710047000a
:10255000304090000000fb00e60040001e009000ac
:10256000808f5000e9ff3c001e019000f100470001
:102570000040eb0000f178007100470060409000df
:102580000000fb000080fa00000006001a00fa00bc
:1025900060579800e400470020c0b30080487800ee
:1025a000e400470020c5b30090409800e4004700d5
:1025b000e0c4b300a0409800e400470010c0b3009e
:1025c000b0409800e40047000040eb00c040980095
:1025d000e400470010cab300d040980064004700f0
:1025e000ee50900061409800e400470030c0b30016
:1025f000f04098006400470081002000f4020700ca
:102600000000eb00100798000040eb00004f78003e
:102610006e509000e14f5000030034000000eb00ca
:10262000400f9800210037001e00900080007800c5
:102630006c00470001004000030307000000e000b9
:10264000070032009e0090006c00470000804000b0
:10265000104f78001e0090000000e800100798005e
:1026600031c0b3009ecf1000efff3a006c0047006e
:10267000304090000000fb00e60040001e0090008b
:10268000808f5000e8ff3c009e0090006c004700e7
:10269000808040000040eb00804878006c004700dc
:1026a000604090000000fb00400f98004e08900032
:1026b0000080fa00000006001600fa00e40047005f
:1026c00020c0b30080487800e400470020c5b30074
:1026d00090409800e4004700f0c4b300a040980088
:1026e000e40047000040eb00b0409800e4004700e1
:1026f0000040eb00c0409800e400470010cab3005f
:10270000d0409800e400470030c0b300e04098009b
:102710006400470071002000ad0207000000eb00dc
:10272000100798000040eb00004f780000003700d1
:102730001e009000800078006c00470001004000ff
:10274000c10207000000e000070032009e00900078
:102750006c00470000804000104f78001e00900081
:102760000000e8001007980030c0b3009e4f100032
:10277000efff3a006c004700304090000000fb0083
:10278000e60040001e009000808f5000e8ff3c00f3
:102790009e0090006c004700808040000040eb00ed
:1027a000804878006c004700604090000000fb000b
:1027b0000080fa00000006000000fa00c4c2a90070
:1027c000c4e2a900c522a900c582a900c542a9008a
:1027d000c5a2a900c5c2a900c5e2a900c0c2a9003e
:1027e000c0e2a900c122a900c182a900c142a9007a
:1027f000c1a2a900c1c2a900c1e2a900d022a900ba
:10280000cc22a900d042a900cc42a900e2e2a90052
:10281000e302a900e802a900e822a900dee2a9007b
:10282000df02a900e402a900e422a900e202a90053
:10283000de02a900d602a900d622a900d642a9002c
:10284000d662a900d682a900d6a2a900d6c2a90044
:10285000d6e2a900d202a900d222a900d242a90040
:10286000d262a900d282a900d2a2a900d2c2a90034
:10287000d2e2a900d1a2a900cda2a900e842a900f4
:10288000e862a900e442a900e462a900de22a800ef
:10289000dec2a800e4c2a800e4e2a800e502a800a5
:1028a000e522a800d302a800d322a800d342a800a2
:1028b000d362a800d382a800d3a2a800d3c2a800e4
:1028c000d3e2a8000080fa00000006000600fa002b
:1028d000000f7800110798001e007800200798006c
:1028e0002e009000e30f5000670032002e00900091
:1028f000e30f500007003e002e009000e10f500053
:102900002e0032002e009000e10f500041003e00ea
:102910000d0037002e009000e50f500094003200ab
:102920002e009000e50f5000740039002e0090003a
:10293000e60f5000ab0032002e009000e70f500071
:10294000c5003200da0037001e009000e10f500091
:102950000f003600c4c2bf000080fb004600de004e
:10296000614060000004a2006140600061406000be
:102970004601dd00412c200091407800f0cbb300ef
:1029800000c0600002407000c4e2b7008a01370056
:102990001e00900061406000614060004601dd0063
:1029a000412c200091407800f0cbb30000c06000c3
:1029b00002407000c4e2b7007f0137001e009000a3
:1029c000e10f50000b003600c4c2bf000080fb00c6
:1029d0004700de000004a20061406000c700dd0087
:1029e000c4c2bf000074a10001407000c4e2b7007f
:1029f000710137001e00900061406000c700dd00db
:102a0000c4c2bf000074a10001407000c4e2b7005e
:102a1000690137001e009000e10f50000f003600e2
:102a2000c5c2bf000080fb000000d1006140600013
:102a30000004a2006140600061406000004140006d
:102a4000512c200091407800d0cfb30000c060002e
:102a500002407000c5e2b700570137001e00900029
:102a6000614060006140600000414000512c200046
:102a700091407800d0cfb30000c0600002407000e9
:102a8000c5e2b7004c0137001e009000e10f500076
:102a90000f003600c5c2bf000080fb004400de000e
:102aa000614060000004a20061406000614060007d
:102ab0004401dd00512c200091407800f0ceb3009d
:102ac00000c0600002407000c5e2b7003a01370064
:102ad0001e00900061406000614060004401dd0024
:102ae000512c200091407800f0ceb30000c060006f
:102af00002407000c5e2b7002f0137001e009000b1
:102b0000e10f50000f003600c5c2bf000080fb007f
:102b10004200de00614060000004a20061406000ed
:102b2000614060004201dd00512c2000914078009e
:102b3000b0cfb30000c0600002407000c5e2b70033
:102b40001d0137001e009000614060006140600080
:102b50004201dd00512c200091407800b0cfb3003d
:102b600000c0600002407000c5e2b70012013700eb
:102b70001e009000e10f50000f003600c5c2bf00dc
:102b80000080fb004500de00614060000004a20000
:102b900061406000614060004501dd00512c200073
:102ba00091407800f0cdb30000c06000024070009a
:102bb000c5e2b700000137001e00900061406000d0
:102bc000614060004501dd00512c200091407800fb
:102bd000f0cdb30000c0600002407000c5e2b70055
:102be000f50037001e009000e10f50000f00360086
:102bf000c5c2bf000080fb004600de0061406000ef
:102c00000004a20061406000614060004601dd00f8
:102c1000512c200091407800f0cbb30000c0600040
:102c200002407000c5e2b700e30037001e009000cc
:102c300061406000614060004601dd00512c2000d1
:102c400091407800f0cbb30000c0600002407000fb
:102c5000c5e2b700d80037001e009000e10f500019
:102c60000b003600c5c2bf000080fb004700de003d
:102c70000004a20061406000c700dd00c5c2bf00c3
:102c80000074a10001407000c5e2b700ca0037001f
:102c90001e00900061406000c700dd00c5c2bf009b
:102ca0000074a10001407000c5e2b700c200370007
:102cb0001e009000e10f500069003600c4c2bf0042
:102cc0000080fb004600de00614060000004a200be
:102cd00061406000614060004601dd00412c200041
:102ce00091407800f0cbb30000c06000024070005b
:102cf000c4e2b700c4c2bf000080fb004700de0092
:102d00000004a20061406000c700dd00c4c2bf0033
:102d10000074a10001407000c4e2b700c5c2bf004a
:102d20000080fb000000d100614060000004a200b0
:102d3000614060006140600000414000512c200073
:102d400091407800d0cfb30000c060000240700016
:102d5000c5e2b700c5c2bf000080fb004400de0032
:102d6000614060000004a2006140600061406000ba
:102d70004401dd00512c200091407800f0ceb300da
:102d800000c0600002407000c5e2b700c5c2bf00cd
:102d90000080fb004200de00614060000004a200f1
:102da00061406000614060004201dd00512c200064
:102db00091407800b0cfb30000c0600002407000c6
:102dc000c5e2b700c5c2bf000080fb004500de00c1
:102dd000614060000004a20061406000614060004a
:102de0004501dd00512c200091407800f0cdb3006a
:102df00000c0600002407000c5e2b700c5c2bf005d
:102e00000080fb004600de00614060000004a2007c
:102e100061406000614060004601dd00512c2000ef
:102e200091407800f0cbb30000c060000240700019
:102e3000c5e2b700c5c2bf000080fb004700de004e
:102e40000004a20061406000c700dd00c5c2bf00f1
:102e50000074a10001407000c5e2b70056003700c1
:102e60001e00900061406000c700dd00c5c2bf00c9
:102e70000074a10001407000c5e2b700c5c2bf00e8
:102e80000080fb004700de00614060004601dd007d
:102e9000512c200091407800f0cbb30000c06000be
:102ea00002407000c5e2b700c5c2bf000080fb0051
:102eb0004600de0061406000614060004501dd00c9
:102ec000512c200091407800f0cdb30000c060008c
:102ed00002407000c5e2b700c5c2bf000080fb0021
:102ee0004500de0061406000614060004201dd009d
:102ef000512c200091407800b0cfb30000c060009a
:102f000002407000c5e2b700c5c2bf000080fb00f0
:102f10004200de0061406000614060004401dd006d
:102f2000512c200091407800f0ceb30000c060002a
:102f300002407000c5e2b700c5c2bf000080fb00c0
:102f40004400de00614060006140600000414000dc
:102f5000512c200091407800d0cfb30000c0600019
:102f600002407000c5e2b700c5c2bf000080fb0090
:102f70000000d10061406000c700dd00c4c2bf0096
:102f80000074a10001407000c4e2b700c4c2bf00d9
:102f90000080fb004700de00614060004601dd006c
:102fa000412c200091407800f0cbb30000c06000bd
:102fb00002407000c4e2b7000080fa000000060082
:102fc0000200fa00000f7800100020009e0f100091
:102fd0000f003600d0c2bf000080fb004200de00c0
:102fe000614060000004a200614060006140600038
:102ff0004201dd00012d200091407800b0cfb300e8
:1030000000c0600002407000d0e2b7000a00370044
:103010001e00780061406000614060004201dd00f8
:10302000012d200091407800b0cfb30000c06000b7
:1030300002407000d0e2b7000080fa0000000600f5
:103040000200fa00000f7800100020009e0f100010
:103050000f003600d0c2bf000080fb000000d1008e
:10306000614060000004a2006140600061406000b7
:1030700000414000012d200091407800d0cfb300e6
:1030800000c0600002407000d0e2b7000a003700c4
:103090001e00780061406000614060000041400017
:1030a000012d200091407800d0cfb30000c0600017
:1030b00002407000d0e2b7000080fa000000060075
:1030c0000000fa00c4c2a900c4e2a900c522a900f8
:1030d000c582a900c542a900c5a2a900c5c2a90010
:1030e000c5e2a9000080fa00000006000c22ef00f3
:1030f0000e22ef000ee2a9000ec2a9008520a90051
:103100008d20a8000de2a80070002000a01088000b
:103110008540a9008d40a80081e0a900c00480007e
:10312000f1002f0000806000015520000080400069
:10313000c00488000fe2a8000f42a8004e2aef004a
:10314000502aef00000006008540a900809fbe00c5
:10315000821f7800560ae20015003200520ae2008f
:1031600016003200540ae20014003200915280002e
:10317000420020000f22af00feff3700a052800067
:103180000000e000070032000000e90054aab70088
:103190003140780010e2b7000201e900f5ff3a0083
:1031a00002003700522aef000100370091528800d8
:1031b0004f0178004f00be000040060000002000d4
:1031c000b05288004f0178004f00be00004006005a
:1031d000560ae200feff3a008d40a9008100e90096
:1031e000a1528800b0407800811088009052880079
:1031f00011002000b15288008d40a8000000060098
:10320000b052800000000600809fbe008520a9000b
:1032100070528000f003b200e1a020008100400065
:103220000000eb0012c2bf00804878004e2aec007c
:103230004f00be00004006007052800081528000a6
:103240000100500000000600715280008252800090
:103250000208e10008003200f203b200e1a0200001
:10326000028140009240780001487800502aec002a
:1032700010002000000006000000eb000000060027
:020000040000fa
:0200000401f009
:04000000e6ff000017
:020000040000fa
:0200000401f009
:04000400ff7f00007a
:020000040000fa
:0200000401f009
:040008007fff000076
:020000040000fa
:0200000401f009
:04001400ffff0000ea
:020000040000fa
:10000800c8190000c8190000c8190000c819000064
:10001800c8190000c8190000c8190000c819000054
:10002800c8190000c8190000c8190000c819000044
:10003800c8190000c8190000c8190000c819000034
:10004800c819000004190000a4180000c81900000d
:10005800c8190000c8190000c8190000c819000014
:10006800c8190000c8190000c8190000c819000004
:10007800c8190000c8190000c8190000c8190000f4
:10008800c8190000c8190000c8190000c8190000e4
:10009800c8190000c8190000c8190000c8190000d4
:1000a800c8190000c8190000c8190000c8190000c4
:1000b800c8190000c8190000c8190000c8190000b4
:1000c800c8190000c8190000c8190000c8190000a4
:1000d800c8190000c8190000c8190000c819000094
:1000e800c8190000c8190000c8190000c819000084
:0800f800c8190000c81900003e
:020000040000fa
:10010800c8190000c8190000c8190000c819000063
:10011800c8190000c8190000c8190000c819000053
:10012800c8190000c8190000c8190000c819000043
:10013800c8190000c8190000c8190000c819000033
:10014800c819000004190000a4180000c81900000c
:10015800c8190000c8190000c8190000c819000013
:10016800c8190000c8190000c8190000c819000003
:10017800c8190000c8190000c8190000c8190000f3
:10018800c8190000c8190000c8190000c8190000e3
:10019800c8190000c8190000c8190000c8190000d3
:1001a800c8190000c8190000c8190000c8190000c3
:1001b800c8190000c8190000c8190000c8190000b3
:1001c800c8190000c8190000c8190000c8190000a3
:1001d800c8190000c8190000c8190000c819000093
:1001e800c8190000c8190000c8190000c819000083
:0801f800c8190000c81900003d
:020000040000fa
:1032800000080000c401000000000000520a000015
:103290000600000002000000000000000000000026
:1032a0000e0a0000440000000200000000000000c0
:1032b000000000000000000000000000000000000e
:1032c00000000000000000000000000000000000fe
:1032d00000000000000000000000000000000000ee
:1032e00000000000000000000000000000000000de
:1032f00000000000000000000000000000000000ce
:103300000000000000000000c40900004a000000a6
:10331000020000000000210015110e000d0c0b0032
:103320000b0a0a0009090900090908000808080031
:103330000808080007070700070707000707070036
:1033400007070700073031003233340035363700c5
:1033500038396100626364006566670068696a0005
:103360006b6c6d006e6f7000717273007475760017
:10337000777879007a000000580a00000400000005
:10338000020000000000000000000000000000003b
:020000040000fa
:043390000000fe003b
:00000001FF
